:020000040800F2
:100000002035002049010008492B0008D11A0008BA
:10001000452B000801080008F53800080000000022
:100020000000000000000000000000006131000836
:100030002109000800000000B92B000879320008EF
:100040006301000863010008630100086301000800
:1000500063010008630100086301000863010008F0
:1000600063010008630100086301000863010008E0
:1000700063010008630100086301000863010008D0
:1000800063010008630100086301000863010008C0
:1000900063010008630100086301000863010008B0
:1000A00063010008630100086301000863010008A0
:1000B0006301000863010008630100086301000890
:1000C0006301000863010008630100086301000880
:1000D0006301000863010008630100086301000870
:1000E0006301000863010008630100086301000860
:1000F0006301000863010008630100086301000850
:10010000630100086301000863010008630100083F
:10011000630100086301000863010008630100082F
:10012000630100086301000863010008630100081F
:10013000DFF810D000F008FB00480047194D000818
:10014000AFF300802035002006488047064800476E
:10015000FEE7FEE7FEE7FEE7FEE7FEE7FEE7FEE777
:10016000FEE7FEE77D3200083101000840EA0103A6
:100170009B0703D009E008C9121F08C0042AFAD25D
:1001800003E011F8013B00F8013B521EF9D2704721
:10019000D2B201E000F8012B491EFBD270470022C9
:1001A000F6E710B513460A4604461946FFF7F0FF76
:1001B000204610BD421C10F8011B0029FBD1801AFB
:1001C0007047F0B480EA0102D40F4200B2EB410F55
:1001D00002D20246084611464A0042D0C30DDDB2A3
:1001E000C1F3C752AD1A202D35DAC1F3160141F41F
:1001F000000204B15242C5F1200602FA06F12A417A
:100200001044B3EBD05F23D0C4B1012DA0EBC35099
:1002100009DCF0BC4FF0004202EAC352DBB200F549
:10022000000000F006BA400000F1807000EBC350FF
:10023000A0F1807040EAD170490009E0490841EA24
:10024000C071A0EBC35000F50000400800EBC350A4
:10025000F0BC00F0E5B96142012202EB4101001B54
:10026000F6E7F0BC704781F00041AAE780F000405B
:10027000A7E780EA010210B502F00043400022D057
:100280004A001FD0010E01EB1261C0F35600C2F309
:10029000560240F4000042F40002A0FB02200004D9
:1002A0007F39140400D0401C50EA124001D44000B1
:1002B000491EC2B20C0604EBD010401C4008802A34
:1002C00002D003E0002010BD20F00100002900DA78
:1002D0000020184310BD30B480EA010202F000454E
:1002E00030F0004221F0004013D090B1C30DD40D86
:1002F000C2F31601C0F31600E41A41F4000140F401
:1003000000027D34914201D3641C00E04900002CBE
:1003100002DA30BC002070474FF400000023914205
:1003200001D3891A034340084FEA4101F7D151B183
:10033000914202D14FF0004105E002D24FF001019D
:1003400001E06FF0010103EBC450284430BC00F021
:1003500067B92DE9FE4F81EA030404F0004421F05F
:10036000004100944FF0000B23F0004350EA0104D9
:100370005ED052EA03045BD0C3F30A54C1F30A55BA
:100380002C44A4F2F3340194A0FB0254C1F31301F2
:1003900041F48011C3F3130343F4801301FB0244BF
:1003A00000FB034E840A970A44EA815447EA8357C4
:1003B000A4FB076802958D0A05FB07854FEA932C7D
:1003C00004FB0C542705029D4FEA065847EA1637EE
:1003D000B5EB08056EEB070C870E920E47EA811706
:1003E00042EA8312A7FB0201B6EB0B0164EB0004A7
:1003F0002B0D43EA0C335E1844EB1C50DA46514691
:10040000E7FB0201C5F313044FEA0B3343EA14532D
:100410004FEA0432019C43EA0603A4F10C0402945F
:10042000009CCDE900B400F041F903B0BDE8F08FC5
:1004300000200146F9E72DE9F04D81EA030404F0BC
:10044000004B21F0004514464FF0000A23F0004114
:1004500050EA050220D054EA01021DD0C5F30A5724
:100460000246C5F31303C1F31300C1F30A5640F467
:10047000801543F48013A7EB0608101BD64608F23C
:10048000FD3873EB050002D308F1010801E0921872
:100490005B41B8F1000F03DA00200146BDE8F08DA2
:1004A00000204FF48011064684460EE0171B73EBC4
:1004B000050705D3121B63EB050306434CEA010C49
:1004C00049084FEA300092185B4150EA0107EDD12C
:1004D00052EA030012D082EA040083EA05010843CD
:1004E00005D0101BAB4106D20122002306E00022FA
:1004F0004FF0004302E06FF0010253101AEB0600C8
:100500004CEB085110EB0A0041EB0B01BDE8F04D3C
:1005100000F0BDB8C10F80EAE0700844CA07962316
:10052000002100F086B800F0004220F00040C10D2C
:10053000C0F3160040F400007F2901DA0020704764
:10054000962903DCC1F19601C84001E09639884044
:10055000002AF4D04042704720F00040C10DC0F3A3
:10056000160040F400007F2901DA00207047962928
:1005700003DCC1F19601C840704796398840704746
:1005800000F0004230F000400AD0C10D01F560716A
:10059000C0F3160042EA0151C208400711437047F8
:1005A00000200146704701F0004330B421F00041C3
:1005B00050EA010206D00A0DA2F56072C1F31301E0
:1005C000002A02DC30BC00207047440F44EAC1041A
:1005D000C100E01830BC00EBC25000F021B80000B0
:1005E000002801DBC0F10040002901DBC1F100411E
:1005F0008142704730B50B4601460020202201247D
:1006000009E021FA02F59D4205D303FA02F5491BE0
:1006100004FA02F52844151EA2F10102F1DC30BDF6
:100620000029A8BF7047401C490008BF20F0010006
:10063000704710B4B0FA80FC00FA0CF050EA0104E4
:1006400004BF10BC704749B1CCF1200421FA04F476
:1006500011FA0CF118BF012121430843A3EB0C014F
:10066000CB1D4FEA00614FEA102042BF002010BCB2
:10067000704700EBC35010440029A4BF10BC704762
:10068000401C490008BF20F0010010BC704710B5A5
:10069000141E73F1000408DA401C41F100019218A5
:1006A0005B411A4301D120F0010010BD2DE9F04D4E
:1006B00092469B4611B1B1FA81F202E0B0FA80F2A3
:1006C0002032904600F052F804460F4640EA0A00F5
:1006D00041EA0B0153465A46084313D0114653EAE8
:1006E000010019D0C8F14002504600F04EF805460E
:1006F0000E4650465946424600F038F8084305D0A9
:10070000012004E020463946BDE8F08D0020054375
:1007100046EAE0762C4337430A986305E40AA0EBE7
:1007200008000022FD0A44EA47540A3002D500209E
:100730000146E9E7010510196941DDE9084500199D
:100740006941BDE8F04DA2E7064C074D06E0E068C0
:1007500040F0010394E8070098471034AC42F6D308
:10076000FFF7EAFC1488010834880108202A04DB1A
:10077000203A00FA02F1002070479140C2F12003B4
:1007800020FA03F3194390407047202A04DB203AF3
:1007900021FA02F00021704721FA02F3D040C2F1A1
:1007A0002002914008431946704770B58C1810F824
:1007B000015B15F0070301D110F8013B2A1106D1A6
:1007C00010F8012B03E010F8016B01F8016B5B1EC0
:1007D000F9D12B0705D40023521E0DD401F8013B9B
:1007E000FAE710F8013BCB1A921C03E013F8015B07
:1007F00001F8015B521EF9D5A142D8D3002070BD8B
:1008000000BFFEE738B505460C460020009002F018
:1008100025FB01229102684602F066FA9DF800006D
:10082000A52801D0012000E00020012C01D10121E8
:1008300000E00021084308B39DF80000A52806D178
:10084000012C04D1C022E102104802F04DFA00BF91
:10085000284603F0C5FB0028FAD0002002F0ACFBCC
:10086000A520009001229102684602F065FAC0229C
:100870004FF40061054802F05FFA05E0C0224FF432
:100880000061024802F030FA38BD00002800002064
:1008900038B504464FF6FF71084602F00DF9012005
:1008A00000900748008883B206480088523882B218
:1008B0000021512001F092FB00F06AF838BD0000E1
:1008C0001A0000201800002010B5044600F002F9BC
:1008D00010BD000070B504462546287A0449087109
:1008E000098888B24FF6FF7102F0E6F870BD00008B
:1008F0001401002070B5044625460849A868086020
:10090000098888B24FF6FF7102F0D6F803480079E3
:10091000082802D100200149087170BD140100208F
:1009200070470000FEB504460D46512C0BDD002D2E
:1009300009DB1348008800B2844204DA11480088B9
:1009400000B2854200DBFEBDA0B2ADF80000A8B247
:10095000ADF8020001208DF80400002002906946E5
:10096000094804F0B1FA064646B901200749087063
:10097000BDF80210BDF8000000F01AFF00BFE2E76A
:10098000180000201A000020AC0200201C010020EA
:1009900010B50E4804F0DCFA0D4804F0CEFA002041
:1009A0000C4908700C4908700C4908700CA000F044
:1009B00065FA1C2211460FA003F0BEFD1CA003F037
:1009C000BBFD1DA003F0B8FD10BD0000AC0200206F
:1009D000B00E00201C0100201D0100201E0100207F
:1009E00052656164793A206472617720646967694D
:1009F00074000000494E464F2C66773D4469676994
:100A0000744E4E5F546F7563682C70726F746F3DD7
:100A1000746F7563685F73747265616D5F76312C96
:100A2000696D6167653D25757825750D0A000000C3
:100A3000434C4541520D0A005354415455532C73B5
:100A4000746174653D69646C652C6D657373616771
:100A5000653D72656164792C70726F746F3D746F5F
:100A60007563685F73747265616D5F76310D0A003E
:100A70000EB50E48007800B90EBD0020ADF800009C
:100A8000ADF802008DF8040002906946084804F0B1
:100A90001BFA0020054908700649087006490870CD
:100AA00006A003F049FD00BFE6E700001C0100209E
:100AB000AC0200201D0100201E0100205354524FA3
:100AC0004B452C656E643D310D0A000010B5FFF7F3
:100AD0005FFF10BD10B58AB0FFF7CAFF4249434817
:100AE00004F04EFA0446002C0CD041A000F0C6F9E8
:100AF000214643A003F020FD21464FA003F01CFD3A
:100B00000AB010BD384800F02DFE002004F0D0FAE5
:100B100008A9354804F088FA0446002C0BD050A0F0
:100B200000F0ACF9214653A003F006FD21465FA07A
:100B300003F002FDE4E7012004F0BAFA06A92A480E
:100B400004F072FA04465CB162A000F097F9214605
:100B500063A003F0F1FC21466DA003F0EDFCCFE7AC
:100B6000022004F0A5FA04A91F4804F05DFA044627
:100B70005CB16FA000F082F9214670A003F0DCFCAC
:100B800021467AA003F0D8FCBAE704AA06A908A86F
:100B900000F04CF9BDF822209DF821107BA003F055
:100BA000CBFCBDF81A209DF8191085A003F0C4FCF9
:100BB000BDF812209DF811108EA003F0BDFCBDF809
:100BC00012009DF81110BDF81A20CDE90021029005
:100BD0009DF81930BDF822209DF82110924803F0AD
:100BE000ABFC00BF8CE70000B00E0020AC02002080
:100BF000496E70757420746F6F20736D616C6C003A
:100C00005354415455532C73746174653D69646C3D
:100C1000652C6D6573736167653D696E7075745F92
:100C2000746F6F5F736D616C6C2C7374617475732A
:100C30003D25640D0A00000044696769744E4E3A10
:100C400020696E70757420746F6F20736D616C6CA9
:100C50002C207374617475733D25640D0A000000C7
:100C600050657263657074726F6E206572726F7218
:100C7000000000005354415455532C737461746543
:100C80003D69646C652C6D6573736167653D706566
:100C90007263657074726F6E5F6572726F722C73BF
:100CA00074617475733D25640D0A000044696769B9
:100CB000744E4E3A2070657263657074726F6E2068
:100CC0006572726F722C207374617475733D256444
:100CD0000D0A0000464E4E206572726F72000000D1
:100CE0005354415455532C73746174653D69646C5D
:100CF000652C6D6573736167653D666E6E5F6572C9
:100D0000726F722C7374617475733D25640D0A00E3
:100D100044696769744E4E3A20666E6E2065727241
:100D20006F722C207374617475733D25640D0A0015
:100D3000434E4E206572726F72000000535441544E
:100D400055532C73746174653D69646C652C6D65D5
:100D500073736167653D636E6E5F6572726F722C4F
:100D60007374617475733D25640D0A004469676985
:100D7000744E4E3A20636E6E206572726F722C2034
:100D80007374617475733D25640D0A0052455355A3
:100D90004C542C6D6F64656C3D502C6C6162656CBD
:100DA0003D25752C636F6E666964656E63653D25D0
:100DB000752C74696D655F75733D300D0A00000018
:100DC000524553554C542C6D6F64656C3D462C6CEC
:100DD0006162656C3D25752C636F6E666964656E36
:100DE00063653D25752C74696D655F75733D300DC8
:100DF0000A000000524553554C542C6D6F64656CCD
:100E00003D432C6C6162656C3D25752C636F6E668D
:100E10006964656E63653D25752C74696D655F75E4
:100E2000733D300D0A000000CC87010870B58CB00E
:100E300004460D461646708871786A886B78CDE94D
:100E40000032CDE902106388627804A104A803F09F
:100E500083FB04A800F012F80CB070BD503A257561
:100E6000202575252520463A257520257525252020
:100E7000433A2575202575252500000010B58AB058
:100E80000446202102A8FFF78AF9224612A102A8EF
:100E900003F062FB114801F019FE4FF6FF710020CC
:100EA00001F00AFE012000900D480088553882B2FA
:100EB00022230221552001F091F802AA0A2157208D
:100EC00000F0FCFE0749098888B24FF6FF7101F077
:100ED000F3FD0AB010BD000025730000F8000020EB
:100EE0001800002014010020F8B505462C46207B90
:100EF000A0BB4FF6FF714CF2186001F0DDFD012040
:100F00000090E6886788F61BB3B2A6882788F61B90
:100F1000B2B26188384601F061F84CF218614FF4C2
:100F2000784001F0C9FD324801F0D0FDE2886388C5
:100F3000D21AA2F1100606EBD67203EB620291B24E
:100F4000A2882388D21AA2F1180707EBD77203EB05
:100F5000620290B227A200F0B1FE33E0FFE74FF645
:100F6000FF71084601F0A8FD01200090E68867881F
:100F7000F61BB3B2A6882788F61BB2B26188384642
:100F800001F02CF84FF6FF714FF4784001F094FD1A
:100F9000174801F09BFDE2886388D21AA2F110067F
:100FA00006EBD67203EB620291B2A2882388D21AB2
:100FB000A2F1180707EBD77203EB620290B20DA201
:100FC00000F07CFE4FF6FF714FF4047001F074FDE9
:100FD00000200090E6886788F61BB3B2A6882788B1
:100FE000F61BB2B26188384600F0F8FFF8BD000089
:100FF000F8000020434C5200F8B505462C46207BF3
:10100000A0B9218988B24FF6FF7101F055FD01208A
:101010000090E6886788F61BB3B2A6882788F61B7F
:10102000B2B26188384600F0D9FF12E04FF6FF7186
:10103000084601F041FD01200090E6886788F61B14
:10104000B3B2A6882788F61BB2B26188384600F092
:10105000C5FF4FF6FF714FF4047001F02DFD002025
:101060000090E6886788F61BB3B2A6882788F61B2F
:10107000B2B26188384600F0B1FFF8BDF8B5054658
:101080002C46207BD0B94FF6FF714FF4047001F06D
:1010900013FD01200090E6886788F61BB3B2A6888E
:1010A0002788F61BB2B26188384600F097FF4FF4EC
:1010B00004714FF6FF7001F0FFFC18E04FF6FF716E
:1010C000084601F0F9FC01200090E6886788F61BCD
:1010D000B3B2A6882788F61BB2B26188384600F002
:1010E0007DFF4FF6FF714FF4047001F0E5FC1748E7
:1010F00001F0ECFCE2886388D21AA2F1100606EB3C
:10110000D67203EB620291B22288083290B210A22A
:1011100000F0D4FD4FF6FF714FF4047001F0CCFCE9
:1011200000200090E6886788F61BB3B2A68827885F
:10113000F61BB2B26188384600F050FF05490988B5
:1011400088B24FF6FF7101F0B7FCF8BDF80000203F
:1011500052454300140100202DE9F8430646344669
:10116000207B80BB4FF6FF714CF2186001F0A4FCAD
:1011700001200090E788B4F802C0A7EB0C07BBB2CF
:10118000A788B4F800C0A7EB0C07BAB26188604624
:1011900000F024FF4CF218614FF4047001F08CFC55
:1011A00000200090E788B4F802C0A7EB0C07BBB2A0
:1011B000A788B4F800C0A7EB0C07BAB261886046F4
:1011C00000F00CFF2FE0FFE74FF6FF71084601F03B
:1011D00073FC01200090E788B4F802C0A7EB0C076D
:1011E000BBB2A788B4F800C0A7EB0C07BAB26188FD
:1011F000604600F0F3FE4FF6FF714FF4047001F00B
:101200005BFC00200090E788B4F802C0A7EB0C0755
:10121000BBB2A788B4F800C0A7EB0C07BAB26188CC
:10122000604600F0DBFE4FF6FF71002001F044FC49
:10123000A06809282FD2DFE800F0052F567DA4CB47
:10124000F5F3F2004FF6FF71002001F035FCB4F821
:1012500006C0B4F80290ACEB090707EBD77C09EBAA
:101260006C0C1FFA8CF3B4F806C0ACEB090808EB61
:10127000D87C09EB6C0C1FFA8CF1B4F804C0ACF10B
:10128000140C1FFA8CF2B4F800C00CF1140C1FFA05
:101290008CF000F053FE77E101200090B4F806C016
:1012A000B4F80290ACEB090808EBD87C09EB6C0CA5
:1012B0001FFA8CF3B4F806C0ACEB090707EBD77C38
:1012C00009EB6C0C1FFA8CF1B4F804C0ACF1140CEF
:1012D0001FFA8CF2B4F800C00CF1140C1FFA8CF059
:1012E00001F02CFB50E102200090B4F806C0B4F8E5
:1012F0000290ACEB090707EBD77C09EB6C0C1FFAEB
:101300008CF3B4F806C0ACEB090808EBD87C09EB09
:101310006C0C1FFA8CF1B4F804C0ACF1140C1FFA79
:101320008CF2B4F800C00CF1140C1FFA8CF001F030
:1013300005FB29E103200090B4F806C0B4F8029040
:10134000ACEB090707EBD77C09EB6C0C1FFA8CF3AD
:10135000B4F806C0ACEB090808EBD87C09EB6C0CC0
:101360001FFA8CF1B4F804C0ACF1140C1FFA8CF223
:10137000B4F800C00CF1140C1FFA8CF001F0DEFA86
:1013800002E104200090B4F806C0B4F80290ACEB7F
:10139000090808EBD87C09EB6C0C1FFA8CF3B4F845
:1013A00006C0ACEB090707EBD77C09EB6C0C1FFA06
:1013B0008CF1B4F804C0ACF1140C1FFA8CF2B4F840
:1013C00000C00CF1140C1FFA8CF001F0B7FADBE04E
:1013D00008200090B4F806C0B4F80290ACEB0907FE
:1013E00007EBD77C09EB6C0C1FFA8CF3B4F806C042
:1013F000ACEB090808EBD87C09EB6C0C1FFA8CF1FC
:10140000B4F804C0ACF1140C1FFA8CF2B4F800C0AC
:101410000CF1140C1FFA8CF001F090FAB4E072E0B9
:1014200027E0FFE70A200090B4F806C0B4F8029065
:10143000ACEB090808EBD87C09EB6C0C1FFA8CF3B9
:10144000B4F806C0ACEB090707EBD77C09EB6C0CD2
:101450001FFA8CF1B4F804C0ACF1140C1FFA8CF232
:10146000B4F800C00CF1140C1FFA8CF001F066FA0D
:101470008AE04FF6FF71002001F01EFBB4F806C0B1
:10148000B4F80290ACEB090707EBD77C09EB6C0CC6
:101490001FFA8CF3B4F806C0ACEB090808EBD87C53
:1014A00009EB6C0C1FFA8CF1B4F804C0ACF1050C1C
:1014B0001FFA8CF2B4F800C00CF1050C1FFA8CF086
:1014C00000F03CFD002514E0E2886388D71A07EBA2
:1014D000D77203EB620291B22288521D05EB85039D
:1014E00002EB430290B20123032200F075FC681C5A
:1014F00085B2A0882188401A0A380A2190FBF1F0B1
:10150000A842E1DC40E000214FF6FF7001F0D4FA80
:1015100001200090E2886388D21AA2F1280707EB25
:10152000D77203EB620291B2A2882388D21AA2F189
:10153000180808EBD87203EB620290B218231A461F
:1015400000F04CFD4CF218614FF4784001F0B4FA11
:101550000F4801F0BBFAE2886388D21AA2F128078B
:1015600007EBD77203EB6202183291B2A28823888C
:10157000D21AA2F1200808EBD87203EB620290B2F3
:1015800004A200F0CFFB00BF00BFBDE8F88300005D
:10159000F8000020E6A9A1E79AAE00002DE9F84383
:1015A00005460F4614461E46DDF82080512C71DD9D
:1015B000512DFCDD98F80400082807D0394628464C
:1015C000FFF7B0F931462046FFF7ACF998F8040070
:1015D000092815D2DFE800F0051525354555687A4C
:1015E0009700002D01DB002F04DAB1B2A0B201F0A8
:1015F0007FF905E0B3B2A2B2B9B2A8B200F09EFC86
:10160000A9E0601E512802DB681E512800DAA2E022
:101610000120B3B2A2B2B9B20090A8B201F08EF923
:1016200099E0A01E512802DBA81E512800DA92E0A2
:101630000220B3B2A2B2B9B20090A8B201F07EF912
:1016400089E0E01E512802DBE81E512800DA82E022
:101650000320B3B2A2B2B9B20090A8B201F06EF901
:1016600079E0201F512802DB281F512800DA72E0A0
:101670000420B3B2A2B2B9B20090A8B201F05EF9F0
:1016800069E0A4F10800512803DBA5F10800512806
:1016900001DA60E060E00820B3B2A2B2B9B2009013
:1016A000A8B201F04BF956E0A4F10A00512803DB7F
:1016B000A5F10A00512800DA4DE00A20B3B2A2B227
:1016C000B9B20090A8B201F039F944E0E01E512807
:1016D00002DBE81E512800DA3DE0002D01DB002F7F
:1016E00004DAB1B2A0B201F003F90BE0B3B2A2B2D6
:1016F000B9B2A8B200F022FCB1B2A0B20123032219
:1017000000F06AFB27E0A4F11400512810DB283018
:101710001249098888420BDC2838002808D406F1D1
:1017200014000F490988884202DC2838002800D5B7
:1017300011E04FF6FF71084601F0BEF90120A6F155
:10174000140291B2A4F11402009090B228231A4618
:1017500000F044FC00BF00BFBDE8F8831800002083
:101760001A00002070B5054605B970BD1C2211464F
:1017700008A002F0E1FE002404E0285D01F0F2FC84
:10178000601C84B2B4F5447FF7D308A002F0D4FE05
:1017900000BFEAE7494D4147452C773D25752C6848
:1017A0003D25752C646174613D0000000D0A000048
:1017B00070B504460D461548007840B114480088BD
:1017C000844204D113480088854200D170BD12487C
:1017D0000078401C104908700C48007820B1084679
:1017E0000078022800D2F1E700200B4908700120A0
:1017F0000649087006480480064805802A462146A6
:1018000006A002F099FE00BFE0E700001E010020E4
:1018100020010020220100201D010020504F494ED0
:10182000542C783D25752C793D25750D0A00000056
:1018300051B18200A2F1C042126842F0010382005D
:10184000A2F1C042136009E08200A2F1C042126816
:10185000034B1A408300A3F1C0431A607047000095
:10186000FEFF0F00D0E901121143C2681143026963
:1018700011434269114382691143C2691143026AEB
:101880001143426A1143826A1143C26A1143026BD7
:10189000114302689200A2F1C042116081680829D8
:1018A0000BD101688900A1F1C041096841F04002F3
:1018B00001688900A1F1C0410A60416B0968426B6F
:1018C000526841EA0211426B926841EA0221426B7E
:1018D000928941EA0241426B128A41EA0251426B0B
:1018E000127D41EA0261426B926911430268521C07
:1018F0009200A2F1C0421160C16AB1F5804F1BD1C4
:10190000816B0968826B526841EA0211826B9268AE
:1019100041EA0221826B128A41EA0251826B127DF6
:1019200041EA0261826B9269114302689200A2F15E
:10193000C042C2F8041107E06FF0704201688900EC
:10194000A1F1C041C1F8042170472DE9F0410246E0
:1019500000250026002000230024002791F803C062
:101960000CF00F0591F803C00CF0100CBCF1000F47
:1019700003D091F802C04CEA050591F800C0BCF113
:10198000000F31D0146800202BE04FF0010C0CFA4E
:1019900000F3B1F800C00CEA03069E4220D1830098
:1019A0004FF00F0C0CFA03F7BC4305FA03FC4CEAAA
:1019B000040491F803C0BCF1280F06D14FF0010CCC
:1019C0000CFA00FCC2F814C00AE091F803C0BCF1A4
:1019D000480F05D14FF0010C0CFA00FCC2F810C002
:1019E000401C0828D1D31460B1F800C0BCF1FF0F2F
:1019F00034DD546800202EE000F1080C4FF001089F
:101A000008FA0CF3B1F800C00CEA03069E4221D19B
:101A100083004FF00F0C0CFA03F7BC4305FA03FCEC
:101A20004CEA040491F803C0BCF1280F05D100F181
:101A3000080C08FA0CF8C2F8148091F803C0BCF145
:101A4000480F07D100F1080C4FF0010808FA0CF814
:101A5000C2F81080401C0828CED35460BDE8F08145
:101A60000246002093680B400BB1012000E00020EB
:101A70007047416170470161704700002DE9F041F6
:101A800080460C461048007820B901F0E7F90120A3
:101A90000D4908702512E6B2A5F1A101C1EB0112B2
:101AA00002EB411106EB4101A1390802C11700EB1D
:101AB0005171CF10054839182022404601F014F921
:101AC0000020BDE8F0810000100100200030180067
:101AD00000BFFEE710B504462CB14FF48051054815
:101AE000FFF7C7FF04E04FF480510248FFF7C3FF40
:101AF00010BD0000001401402DE9F04106460F46DC
:101B000014461D462B4622463946304600F042FC1C
:101B100004FB05F00249098800F0DBFABDE8F0811A
:101B20002600002001B502E00098401E00900098B9
:101B30000028F9D108BD00002DE9F04389B08046A6
:101B40008946174610231A464946404600F022FCB3
:101B50002C2000F0E9FE394601A8FFF78FFF002492
:101B600022E001A810F814604FF6FF7000EA062684
:101B7000012000EB440001A9085C064300250FE0AA
:101B80004FF400402841304020B10A48008800F05E
:101B9000CFFE03E00848008800F0CAFE681CC5B20A
:101BA000102DEDDB601CC4B2102CDADB09B0BDE8EF
:101BB000F083000024000020260000202DE9F05FC3
:101BC000804689461646A6F120001FFA80FA1E4973
:101BD000096889881C4A1268D28801FB02F0C11783
:101BE00000EB5171C1F3C7071748006800680AFB92
:101BF000070B15480068C388134800688288494667
:101C0000404600F0C7FB2C2000F08EFE002416E0BA
:101C1000002510E01BF8040080212941084020B174
:101C20000A48008800F084FE03E00948008800F0BC
:101C30007FFE681CC5B2082DECDB601CC4B2BC4240
:101C4000E6DBBDE8F09F000020000020240000201B
:101C50002600002070B504460D46002624E03046DC
:101C6000134909688988084412490988884205DDB2
:101C700000260F480068C088204484B220460C49E2
:101C80000968C98808440C490988884201DD002692
:101C900000242A7821463046FFF790FF6D1C044847
:101CA00000688088304486B228780028D7D170BD7B
:101CB00020000020180000201A00002070B5054602
:101CC0000E46144624E028461349096889880844CA
:101CD00012490988884205DD00250F480068C08840
:101CE000304486B230460C490968C98808440C491A
:101CF0000988884201DD00250026227831462846E1
:101D0000FFF75CFF641C044800688088284485B2A3
:101D100020780028D7D170BD2000002018000020B6
:101D20001A0000202DE9F04105460E46144648E011
:101D300020787E2825DC28462449096889880844BB
:101D400023490988884205DD002520480068C088AD
:101D5000304486B230461D490968C98808441D4987
:101D60000988884201DD0025002622783146284670
:101D7000FFF724FF154800688088284485B2641C5A
:101D80001FE02846103012490988884203DD0025EB
:101D900006F1100086B2304610300E49098888429C
:101DA00001DD002500262788380200EB272087B2B6
:101DB0003A4631462846FFF7BFFE05F1100085B2CE
:101DC000A41C20780028B3D1BDE8F08120000020B9
:101DD000180000201A0000202DE9F05F05460E468D
:101DE00091469B4600240FFA89F70320A0EB490097
:101DF0000FFA80FA87E0BBF1000F40D0A0463BE02D
:101E000006EB080291B22A1990B200F071FD06EBC0
:101E1000080291B22A1B90B200F06AFD321991B209
:101E2000A5EB080290B200F063FD321B91B2A5EB66
:101E3000080290B200F05CFDA6EB080291B22A1BEA
:101E400090B200F055FDA6EB080291B22A1990B2AB
:101E500000F04EFD321B91B205EB080290B200F08B
:101E600047FD321991B205EB080290B200F040FD37
:101E700008F101000FFA80F8B845C1DD2FE0F21932
:101E800091B22A1990B200F033FDF21991B22A1BD7
:101E900090B200F02DFD321991B2EA1B90B200F021
:101EA00027FD321B91B2EA1B90B200F021FDF21B1C
:101EB00091B22A1B90B200F01BFDF21B91B22A19BD
:101EC00090B200F015FD321B91B2EA1990B200F009
:101ED0000FFD321991B2EA1990B200F009FD601CB1
:101EE00004B2BAF1000F05DAA000801D50440FFAC9
:101EF00080FA07E0E01B80000A3050440FFA80FAB5
:101F0000781E07B200BFBC427FF775AFBDE8F09FF7
:101F100070B504460D4604F10A018AB2143988B23C
:101F20002B46294600F00AF805F10A0083B214385E
:101F300081B22246204600F001F870BD2DE9FF4F26
:101F400083B081464FF0000AD3460598A0EB0905FF
:101F500004990698461ACDF8049004980090002D34
:101F600001DD012705E00DB9002702E04FF0FF3742
:101F70006D42002E02DD4FF0010806E016B94FF069
:101F8000000802E04FF0FF387642B54201DD2C46F2
:101F900000E034460020029019E0DDE9001000F076
:101FA000A7FCAA44B344A24505DDAAEB040A0198A4
:101FB000384480B20190A34505DDABEB040B0098DB
:101FC000404480B200900298401C80B20290611C94
:101FD00002988842E1DD07B0BDE8F08F2DE9F041BD
:101FE00004460D4616461F46DDF81880B8F1000F6E
:101FF0000CD03B4632462946204600F0CBF906FB82
:1020000007F01749098800F064F827E0A019401E7E
:1020100082B22B4629462046FFF790FFE819401E62
:1020200083B2A019401E82B2E819401E81B2204638
:10203000FFF784FFE819401E83B222462946204656
:10204000FFF77CFFE919491E8BB2A119491E8AB21C
:10205000A119491E88B22946FFF770FFBDE8F0813B
:102060002400002000B597B03C2108A8FEF797F89F
:102070001C2101A8FEF793F80121080200F09EFD43
:102080000120019004200390800607900020029018
:102090000490059006900890099008200A9010205E
:1020A0000B9000200C900E900F9010904FF48050E9
:1020B0001190002012901390149001A81590169082
:1020C00008A8FFF7CFFB01210020FFF7B1FB17B0F5
:1020D00000BD70B504460D4600262C2000F024FCFF
:1020E00000BF03E0284600F023FC761CA642F9D38B
:1020F00070BD000008B50121602000F06FFD0320D5
:102100008DF8020018208DF803004FF48040ADF8E0
:10211000000069465B48FFF718FC4FF40040ADF83B
:10212000000069465748FFF710FC0120ADF8000099
:1021300069465448FFF709FC0220ADF800006946E3
:102140005048FFF702FC8020ADF8000069464E4879
:10215000FFF7FBFB4FF48070ADF8000069464A487A
:10216000FFF7F3FB4FF40070ADF8000069464648F6
:10217000FFF7EBFB4FF48060ADF800006946424882
:10218000FFF7E3FB4FF40060ADF8000069463E48FE
:10219000FFF7DBFB4FF48050ADF8000069463A488A
:1021A000FFF7D3FB4FF40050ADF800006946364806
:1021B000FFF7CBFB4FF48040ADF800006946324892
:1021C000FFF7C3FB4FF40040ADF8000069462E480E
:1021D000FFF7BBFB4FF48070ADF80000694629485B
:1021E000FFF7B3FB4FF40070ADF8000069462548D7
:1021F000FFF7ABFB4FF48060ADF800006946214863
:10220000FFF7A3FB03208DF8020018208DF80300D0
:102210001020ADF8000069461A48FFF796FB202011
:10222000ADF8000069461748FFF78FFB8020ADF836
:10223000000069461348FFF788FB4FF40060ADF8D3
:10224000000069460F48FFF780FB10208DF803005F
:1022500003208DF802000220ADF8000069460A480C
:10226000FFF773FB10208DF8030003208DF80200A8
:102270004FF48050ADF8000069460248FFF765FB57
:1022800008BD0000001401400018014010B50446CC
:10229000072C00DD10BD31480470204604EBD071DE
:1022A0004910A4EB410139B9F0202D4908804FF4C1
:1022B000A0702C49088006E04FF4A07028490880DF
:1022C000F02028490880362000F02EFB26480088A0
:1022D00049F24131884205D1082141EA441000F019
:1022E00027FB0AE02048008848F25251884204D176
:1022F000002141EA441000F01BFB2A2000F014FBEF
:10230000002000F015FB002000F012FB14490988A2
:10231000491EC1F3072000F00BFB11490978491E43
:10232000C8B200F005FB2B2000F0FEFA002000F000
:10233000FFFA002000F0FCFA0A490988491EC1F39F
:10234000072000F0F5FA07490978491EC8B200F0E5
:10235000EFFA2C2000F0E8FA00BF9BE71C000020F9
:10236000180000201A0000201E00002010B5FFF702
:10237000C1FEFFF777FE0120FFF7ACFB00F09AFAF1
:1023800000F038F802480078FFF780FF10BD000029
:102390001C0000202DE9F04104460D4616461F465C
:1023A0002A2000F0C1FA201200F0C2FAE0B200F0D8
:1023B000BFFAA119491EC1F30F2000F0B9FAA11903
:1023C000491EC8B200F0B4FA2B2000F0ADFA281272
:1023D00000F0AEFAE8B200F0ABFAE919491EC1F319
:1023E0000F2000F0A5FAE919491EC8B200F0A0FAC2
:1023F000BDE8F08110B500F025FAFE4908800846D6
:10240000008849F2413188427ED1CF2000F08CFA19
:10241000002000F08DFA812000F08AFA302000F0D0
:1024200087FAED2000F080FA642000F081FA0320A2
:1024300000F07EFA122000F07BFA812000F078FA9A
:10244000E82000F071FA852000F072FA102000F008
:102450006FFA782000F06CFACB2000F065FA392092
:1024600000F066FA2C2000F063FA002000F060FA19
:10247000342000F05DFA062000F05AFAF72000F050
:1024800053FA202000F054FAEA2000F04DFA002020
:1024900000F04EFA002000F04BFAB12000F044FAB0
:1024A000002000F045FA1B2000F042FAB62000F0B0
:1024B0003BFA0A2000F03CFAA22000F039FAC020D2
:1024C00000F032FA352000F033FAC12000F02CFA87
:1024D000112000F02DFAC52000F026FA452000F06A
:1024E00027FA452000F024FAC72000F01DFAA220A8
:1024F00000F01EFAF22000F017FA002000F018FA9F
:10250000262000F011FA00E096E0012000F010FA19
:10251000E02000F009FA0F2000F00AFA262000F06F
:1025200007FA242000F004FA0B2000F001FA0E2034
:1025300000F0FEF9092000F0FBF9542000F0F8F952
:10254000A82000F0F5F9462000F0F2F90C2000F088
:10255000EFF9172000F0ECF9092000F0E9F90F205D
:1025600000F0E6F9072000F0E3F9002000F0E0F9C0
:10257000E12000F0D9F9002000F0DAF9192000F08C
:10258000D7F91B2000F0D4F9042000F0D1F9102075
:1025900000F0CEF9072000F0CBF92A2000F0C8F9AE
:1025A000472000F0C5F9392000F0C2F9032000F0FF
:1025B000BFF9062000F0BCF9062000F0B9F9302080
:1025C00000F0B6F9382000F0B3F90F2000F0B0F9B0
:1025D000362000F0A9F9C82000F0AAF92A2000F05E
:1025E000A3F9002000F0A4F9002000F0A1F90020D8
:1025F00000F09EF9EF2000F09BF92B2000F094F9F9
:10260000002000F095F9002000F092F9012000F080
:102610008FF93F2000F08CF93A2000F085F9552021
:1026200000F086F9112000F07FF97348FFF77AFA7D
:10263000292000F079F901E16E48008848F25251F2
:102640008842F8D1CF2000F06FF9002000F070F937
:10265000C12000F06DF9302000F06AF9ED2000F0A3
:1026600063F9642000F064F9032000F061F912209E
:1026700000F05EF9812000F05BF9E82000F054F9E9
:10268000852000F055F9102000F052F9782000F074
:102690004FF9CB2000F048F9392000F049F92C20FF
:1026A00000F046F9002000F043F9342000F040F932
:1026B000022000F03DF9F72000F036F9202000F06C
:1026C00037F9EA2000F030F9002000F031F900205D
:1026D00000F02EF9C02000F027F9212000F028F9A1
:1026E000C12000F021F9112000F022F9C52000F0EE
:1026F0001BF92D2000F01CF9332000F019F93620C9
:1027000000F012F9002000F013F93A2000F00CF963
:10271000552000F00DF9B12000F006F9002000F07E
:1027200007F9172000F004F9B62000F0FDF80A20A0
:1027300000F0FEF8A22000F0FBF8F62000F0F4F81C
:10274000012000F0F5F8302000F0F2F8F22000F05F
:10275000EBF8002000F0ECF8262000F0E5F801206E
:1027600000F0E6F8E02000F0DFF8D02000F0E0F81C
:10277000002000F0DDF8022000F0DAF8072000F079
:10278000D7F80B2000F0D4F81A2000F0D1F831204F
:1027900000F0CEF8542000F0CBF8402000F0C8F84C
:1027A000292000F0C5F8122000F0C2F8122000F035
:1027B000BFF8122000F0BCF8172000F0B9F8E120B3
:1027C00000F0B2F8D02000F0B3F8002000F0B0F82C
:1027D000022000F0ADF8072000F0AAF8052000F074
:1027E000A7F8252000F0A4F82D2000F0A1F844203F
:1027F00004E000001E000020FCBF020000F098F87A
:10280000452000F095F81C2000F092F8182000F008
:102810008FF8162000F08CF81C2000F089F81D209D
:1028200000F086F8112000F07FF80548FFF77AF9EC
:10283000292000F079F82C2000F076F810BD000077
:10284000FCBF020010B50024042000F06DF800F079
:102850002BF800F029F800F027F804464FF6FF7037
:1028600000EA042400F020F8044348F25250844265
:1028700001D1204610BDD32000F056F800F014F826
:1028800000F012F800F010F804464FF6FF7000EA6E
:10289000042400F009F8044349F24130844201D194
:1028A0002046E7E70020E5E7014800887047000080
:1028B0000000026010B502210748FFF7DAF840F681
:1028C000FF20FFF72FF902210348FFF7D4F840F665
:1028D000FF20FFF727F910BD0018014070B504462E
:1028E0000D4601231A4629462046FFF753FD70BDC9
:1028F00070B505460C460948008885420CDA084840
:102900000088844208DA21462846FFF7E7FF054899
:1029100001880120FFF7DDFB70BD000018000020DA
:102920001A000020240000204FF0C04108807047AA
:102930000149088070470000000002602DE9F04F57
:102940008BB005460E4691469A46DDF850B00027FA
:10295000B84600200A9009900890079006900590CC
:1029600000240490039002900190A9EB0500002838
:1029700002DDA9EB050001E0A5EB090007B2AAEB17
:102980000600002802DDAAEB060001E0A6EB0A0023
:102990000FFA80F828B20A9030B20990A94503DBFB
:1029A00001200890079003E04FF0FF300890079057
:1029B000B24503DB01200690059003E04FF0FF30A5
:1029C0000690059047450DDB0020089005903C4699
:1029D000384607EBD071491009B20491CDF80C804C
:1029E00002970CE00020079006904446404608EB12
:1029F000D071491009B204910397CDF808800020E6
:102A0000019041E00A9858442349098888420DDC26
:102A10000A98B0EB0B0009D4099858441F4909885B
:102A2000884203DC0998B0EB0B0000D528E0099A36
:102A300091B20A9A90B201235A46FFF7CDF9DDE927
:102A40000310084400B204900498A0420DDB0498DF
:102A5000001B00B2049008990A98084400B20A903A
:102A600006990998084400B2099007990A98084401
:102A700000B20A9005990998084400B2099000BF75
:102A80000198401C00B20190DDE901018842B9DDE6
:102A90000BB0BDE8F08F0000180000201A000020E5
:102AA00001480068704700002000002001490880AC
:102AB0007047000026000020024A1080024A118060
:102AC0007047000024000020260000200149086013
:102AD0007047000020000020014908807047000076
:102AE0002400002008B50121082000F077F82020FC
:102AF000ADF8000010208DF8030003208DF80200CF
:102B000069460F48FEF721FF0120ADF80000694635
:102B10000B48FEF71AFF0220ADF80000694608488E
:102B2000FEF713FF20210648FEF7A5FF0121044808
:102B3000FEF7A1FF02210248FEF79DFF08BD00003D
:102B4000000C014000BFFEE77047000070B505466D
:102B50002846FFF79BFB4FF6FF70FFF7A7FF1248D1
:102B600003881248028800210846FEF7C5FF00F0DE
:102B700011FC00240CE004EB44020D4B03EBC200FB
:102B800004EB440203EBC20211698847601CC4B223
:102B9000102CF0DB0020074908600871098888B212
:102BA000FFF79AFF70BD00001A00002018000020F7
:102BB0002C010020140100207047000029B1064AB2
:102BC00052690243044B5A6104E0034A526982434A
:102BD000014B5A61704700000010024029B1064ABB
:102BE00092690243044B9A6104E0034A926982436A
:102BF000014B9A61704700000010024030B500217F
:102C00000022002400232D4D6D6805F00C0121B138
:102C1000042905D0082923D105E0294D056022E0CB
:102C2000274D05601FE0254D6D6805F47012234D9A
:102C30006D6805F48034022505EB92421CB9214DE4
:102C4000554305600BE01D4D6D6805F400351DB161
:102C50001C4D5543056002E0194D5543056002E0E7
:102C6000174D056000BF00BF144D6D6805F0F00101
:102C70000909154D6B5C0568DD4045600F4D6D68B9
:102C800005F4E061090A104D6B5C4568DD40856024
:102C90000A4D6D6805F46051C90A0B4D6B5C4568BF
:102CA000DD40C560054D6D6805F44041890B074D59
:102CB0006B5CC568B5FBF3F5056130BD00100240E3
:102CC00000127A0000093D000000002010000020E2
:102CD00021B1028842F04002028004E002884FF6EF
:102CE000BF731A400280704770B505460C46164601
:102CF00001211048FEF7BDFE032000F07FF9C4F368
:102D0000074000F07BF9C4F3072000F077F9E0B248
:102D100000F074F904E0FF2000F070F928706D1CD9
:102D2000301EA6F101018EB2F5D101210148FEF756
:102D3000A2FE70BD001001402DE9F05F07460E466F
:102D400014464FF00008C146C2460025AB4606F0C7
:102D5000FF0ACAF10000C5B22046E11704EB116179
:102D6000C1F30728E11704EB11610912A4EB01215B
:102D700001F0FF09BAF1000F20D1B8F1000F05D121
:102D800022463146384600F0C9F864E009E04FF4C5
:102D900080723146384600F0C1F806F5807607F5B6
:102DA0008077B8F10000A8F1010101F0FF08EED131
:102DB0004A463146384600F0B1F84CE0B8F1000F11
:102DC00018D1A94510DDA9EB050000F0FF0B2A463C
:102DD0003146384600F0A2F82E442F445A46314678
:102DE000384600F09BF836E022463146384600F07F
:102DF00095F830E0601B84B22046E11704EB1161C6
:102E0000C1F30728E11704EB11610912A4EB0121BA
:102E100001F0FF092A463146384600F07FF82E447B
:102E20002F4409E04FF480723146384600F076F8BE
:102E300006F5807607F58077B8F10000A8F101016A
:102E400001F0FF08EED1B9F1000F04D04A46314637
:102E5000384600F063F8BDE8F09F000000B587B089
:102E600001210803FFF7BAFE0121D420FFF7B6FEC7
:102E70000120ADF8040003208DF8060010208DF825
:102E8000070001A92248FEF760FD2020ADF80400EC
:102E900018208DF8070001A91E48FEF756FD4020B6
:102EA000ADF8040001A91B48FEF74FFD8020ADF8E6
:102EB000040001A91748FEF748FD01211448FEF758
:102EC000DAFD0020ADF808004FF48270ADF80A007A
:102ED0000020ADF80C000220ADF80E000120ADF886
:102EE00010004002ADF812000820ADF814000020D8
:102EF000ADF816000720ADF8180002A9064800F04A
:102F0000F1F801210448FFF7E3FE07B000BD00001F
:102F100000100140000801400030014070B5054636
:102F20000C46164600F0C0F801211548FEF7A1FD39
:102F3000022000F063F8C4F3074000F05FF8C4F328
:102F4000072000F05BF8E0B200F058F8B6F5807F9B
:102F500004DD4FF480760BA001F0EEFA03E0287850
:102F600000F04CF86D1C301EA6F101018EB2F6D1B6
:102F700001210348FEF77FFD00F07CF870BD0000E2
:102F8000001001403C3C2D464C4153482D455252C7
:102F90004F522D3E3E205350495F464C4153485FAF
:102FA00050616765577269746520746F6F206C613A
:102FB000726765210A00000010B5044600F074F83D
:102FC00000F058F801210C48FEF753FD202000F0D6
:102FD00015F8C4F3074000F011F8C4F3072000F01F
:102FE0000DF8E0B200F00AF801210348FEF743FDB6
:102FF00000F040F810BD00000010014010B504467C
:103000004FF48050194908600AE018490868411EC9
:10301000164A116020B9002000F082F8C0B210BD3D
:103020000221134800F050F80028EED02146104845
:1030300000F056F84FF480500C4908600AE00B4944
:103040000868411E094A116020B9012000F068F8A3
:10305000C0B2E4E70121064800F036F80028EED0BF
:10306000034800F03AF8C0B2D9E70000140000208D
:103070000030014010B5002401210A48FEF7F9FC98
:103080000520FFF7BBFF00BFFF20FFF7B7FF044697
:1030900004F001000028F7D101210248FEF7EBFC03
:1030A00010BD00000010014010B501210548FEF7D9
:1030B000E0FC0620FFF7A2FF01210248FEF7DBFC3F
:1030C00010BD0000001001400246002013890B4093
:1030D0000BB1012000E0002070470146888970474D
:1030E0008181704710B50022028802F441520B889A
:1030F0004C8823438C882343CC8823430C89234367
:103100004C8923438C892343CC8923431A4302806F
:10311000838B4FF2FF74234083830B8A038210BD9D
:1031200010B50446214602A001F006FA002010BDA9
:103130003C3C2D464C4153482D4552524F522D3E5A
:103140003E2053504920B5C8B4FDB3ACCAB1216587
:1031500072726F72436F6465203D2025640A00001F
:103160007047000010B50446074901EB14110878B8
:10317000064901F057FF04F00F01034A505C034970
:1031800001F050FF10BD0000E68F0008280100206C
:1031900010B500F001F810BD0CB5002001900090B2
:1031A0003348006840F480303149086000BF30483F
:1031B000006800F4003000900198401C01900098D5
:1031C00018B90198B0F5A06FF1D12948006800F452
:1031D000003010B10120009001E000200090009824
:1031E000012843D12348006840F0100021490860BD
:1031F0000846006820F0030008600846006840F0B8
:10320000020008601A48406819494860084640684A
:1032100048600846406840F480604860084640685E
:1032200020F47C1048600846406840F4E81048608C
:103230000846006840F08070086000BF0C480068D5
:1032400000F000700028F9D00948406820F0030021
:10325000074948600846406840F00200486000BFE7
:103260000348406800F00C000828F9D10CBD0000AC
:1032700000100240002002407047000010B51348C3
:10328000006840F001001149086008464068104994
:1032900008400E494860084600680E4908400B493E
:1032A00008600846006820F48020086008464068EE
:1032B00020F4FE0048604FF41F008860FFF768FFAD
:1032C0004FF000600449086010BD0000001002408B
:1032D0000000FFF8FFFFF6FE08ED00E070B50546C0
:1032E0000E46002450E004EB4400294901EBC000E5
:1032F0008088A8422CDB04EB440001EBC000C088AE
:10330000B04225DB04EB440001EBC0004088B04232
:103310001EDC04EB440031F83000A84218DC04EB5A
:10332000440001EBC000007B60BB012004EB4401C2
:10333000174A02EBC101087304EB4402144B03EB80
:10334000C20004EB440203EBC2021169884719E092
:1033500004EB44000E4901EBC000007B012811D1B1
:10336000002004EB44010A4A02EBC101087304EB9C
:103370004402074B03EBC20004EB440203EBC2021E
:1033800011698847601CC4B2102CACDB70BD000012
:103390002C0100200020C449088048802820888013
:1033A0001C20C880002088600873C0480861C0489D
:1033B0004861002008831C21BB4841832821818368
:1033C0003821C18346F20C310162002180F82410BB
:1033D000B6498162B649C1620020B34908863821E6
:1033E000B1484186282181865421C1861F218163ED
:1033F000002180F83C10AD490164AD4941640020D2
:10340000A949A1F848005421A748A0F84A1028214A
:10341000A0F84C107021A0F84E1040F2FF71016529
:10342000002180F85410A1498165A149C16500209F
:103430009D49A1F8600070219B48A0F862102821E6
:10344000A0F864108C21A0F866104FF478418166D2
:10345000002180F86C10954901679549416700206B
:103460009149A1F878008C218F48A0F87A10282182
:10347000A0F87C10A821A0F87E104FF61F01C0F81C
:103480008010002180F884108849C0F8881088498D
:10349000C0F88C1000208449A1F89000A82182482F
:1034A000A0F892102821A0F89410C421A0F896103A
:1034B0004FF4FC61C0F89810002180F89C107B4903
:1034C000C0F8A0107A49C0F8A41000207649A1F8ED
:1034D000A800C4217448A0F8AA102821A0F8AC10B4
:1034E000744801887048A0F8AE104CF21861C0F81A
:1034F000B010002180F8B4106F49C0F8B8106F49BF
:10350000C0F8BC1028206849A1F8C0000021664816
:10351000A0F8C2105021A0F8C4101C21A0F8C610B9
:103520000021C0F8C81080F8CC106549C0F8D01050
:103530006449C0F8D41028205B49A1F8D8001C21A8
:103540005948A0F8DA105021A0F8DC103821A0F872
:10355000DE100121C0F8E010002180F8E410584985
:10356000C0F8E8105749C0F8EC1028204E49A1F8DF
:10357000F00038214C48A0F8F2105021A0F8F410C7
:103580005421A0F8F6100221C0F8F810002180F8AC
:10359000FC104B49C0F800114A49C0F8041128201A
:1035A0004149A1F8080154213F48A0F80A115021CF
:1035B000A0F80C117021A0F80E110321C0F8101111
:1035C000002180F814113E49C0F818113D49C0F897
:1035D0001C1128203449A1F8200170213248A0F89C
:1035E00022115021A0F824118C21A0F826110421C9
:1035F000C0F82811002180F82C113149C0F8301191
:103600003049C0F8341128202749A1F838018C210D
:103610002548A0F83A115021A0F83C11A821A0F8A3
:103620003E110521C0F84011002180F844112449C1
:10363000C0F848112349C0F84C1128201A49A1F8B4
:103640005001A8211848A0F852115021A0F8541197
:10365000C421A0F856110621C0F85811002180F8A5
:103660005C111749C0F860111649C0F86411282090
:103670000D49A1F86801C4210B48A0F86A11502136
:10368000A0F86C110B4801880748A0F86E110021C2
:10369000C0F8701180F874110B49C0F878110B490B
:1036A000C0F87C11704700002C010020F90F0008C1
:1036B000F50800081A000020E90E0008910800082B
:1036C00059110008D50800087D100008C908000835
:1036D00070B505460E4600243BE004EB44001F494C
:1036E00001EBC0008088A84231DD04EB440031F8D2
:1036F0003000A8422BDA04EB440001EBC000C08884
:10370000B04224DD04EB440001EBC0004088B0422D
:103710001DDA002004EB4401104A02EBC1010873DA
:1037200004EB44020D4B03EBC20004EB440203EB39
:10373000C2021169884704EB4402084B03EBC20044
:1037400004EB440203EBC2025169884703E0601CAA
:10375000C4B2102CC1DB00BF70BD00002C010020E2
:1037600021B1828942F40052828104E082894DF6BF
:10377000FF731A408281704700B585B00121042093
:10378000FFF72CFA01218803FFF728FA4FF40070A5
:10379000ADF8100018208DF8130003208DF81200EA
:1037A00004A91348FEF7D1F84FF48060ADF810007B
:1037B00004208DF8130004A90D48FEF7C6F84FF455
:1037C000E13000900020ADF80400ADF80600ADF83F
:1037D0000800ADF80C000C20ADF80A006946054859
:1037E00000F018F801210348FFF7BAFF05B000BD4B
:1037F000000801400038014002460020B1F5007F7A
:1038000000D100BF13880B400BB1012000E0002065
:10381000704700002DE9F04786B005460E460024AB
:10382000A24600BFA1460027B08900B100BF2F46C5
:103830002C8A4CF6FF700440F08804432C82AC893B
:103840004EF6F3100440B08831890843718908436B
:103850000443AC81AC8A4FF6FF400440B089044376
:10386000AC8201A8FFF7CAF91F48874202D1DDF8F0
:1038700010A001E0DDF80CA0A88900F4004040B1E0
:103880000AEBCA0000EB0A1031684900B0FBF1F8FE
:1038900007E00AEBCA0000EB0A1031688900B0FBB0
:1038A000F1F86420B8FBF0F004012009642101FB69
:1038B0001089A88900F4004040B1322000EBC90013
:1038C000B0FBF1F000F00700044308E0322000EB09
:1038D00009106421B0FBF1F000F00F0004432C81CB
:1038E00006B0BDE8F087000000380140C1F30802CF
:1038F0008280704700BFFEE72DE9F04105460C4687
:1039000016460127B4F90010B4F91020891AB4F949
:103910000A30B4F912209A1A5143B4F90820B4F9C4
:103920001030D31AB4F902C0B4F91220ACEB020281
:1039300003FB1210FCF7EEFDB0610021B069FCF74B
:103940004FFE01D10027C3E0B5F90010B5F91020F2
:10395000891AB4F90A30B4F912209A1A5143B5F908
:103960000820B5F91030D31AB4F902C0B4F9122006
:10397000ACEB020203FB1210FCF7CCFD3060B4F993
:103980000010B4F91020891AB5F90820B5F91030E3
:10399000D21A5143B5F90020D21AB4F90830B4F95B
:1039A00010C0A3EB0C0302FB1310FCF7B3FD706017
:1039B000B4F91010B5F908205143B4F90820B5F94D
:1039C000103002FB1311B4F902205143B4F9002066
:1039D0005A43B4F91030B5F900C003FB1C23B4F905
:1039E0000A2003FB0212B4F9081001FB0CF1B4F930
:1039F0000030B5F908C003FB1C13B4F9121003FB27
:103A00000120FCF787FDB060B5F90220B5F912106E
:103A1000511AB4F90A30B4F912209A1A5143B5F97F
:103A20000A30B5F912209B1AB4F902C0B4F9122079
:103A3000ACEB020203FB1210FCF76CFDF060B4F972
:103A40000010B4F91020891AB5F90A30B5F912201E
:103A50009A1A5143B5F90230B5F912209A1AB4F9FD
:103A60000830B4F910C0A3EB0C0302FB1310FCF7F1
:103A700051FD3061B4F91010B5F90A205143B4F981
:103A80000830B5F9122003FB1211B4F9022051439A
:103A9000B4F90020B5F912305A43B4F91030B5F931
:103AA00002C003FB1C23B4F90A2003FB0213B4F980
:103AB000081001FB0CF1B4F900C0B5F90A200CFBA9
:103AC0001212B4F9121002FB0130FCF723FD7061F1
:103AD0003846BDE8F08101B5002007E00C2100BFA9
:103AE0000A1EA1F10103D9B2FAD1401C0099884203
:103AF000F4D308BD2DE9FC5F05460C460126684657
:103B000000F0BEF8002865D0BDF90200FCF702FD08
:103B100083463248007800EB400004EBC000416867
:103B20005846FCF7A6FB8146BDF90000FCF7F2FC05
:103B300083462A48007800EB400054F8301058467D
:103B4000FCF797FB82464946FCF73BFB804623483F
:103B5000007800EB400004EBC00081684046FCF7B1
:103B600030FB0746FCF7DFFC00B22880BDF90200FD
:103B7000FCF7D0FC83461948007800EB400004EBCA
:103B8000C00001695846FCF774FB8146BDF900008E
:103B9000FCF7C0FC83461148007800EB400004EBC2
:103BA000C000C1685846FCF764FB82464946FCF7F2
:103BB00008FB80460948007800EB400004EBC00099
:103BC00041694046FCF7FDFA0746FCF7ACFC00B241
:103BD000688000E000263046BDE8FC9F1C00002005
:103BE00008B501216020FEF7F9FF0120ADF80000C3
:103BF0008DF8020010208DF8030069461A48FDF781
:103C0000A4FE0420ADF8000069461748FDF79DFEAC
:103C10000820ADF8000001208DF8020048208DF842
:103C2000030069461048FDF790FE4FF40050ADF8D0
:103C3000000001208DF8020010208DF80300694675
:103C40000A48FDF782FE4FF400510848FDF711FFC6
:103C50001020ADF8000048208DF8030069460248A6
:103C6000FDF773FE08BD000000180140001401407C
:103C700010B50446204600F02DFC00F0C1F810BD40
:103C80002DE9F0478CB00646002528216846FCF750
:103C900086FA00BF0AA90BA800F09EF8BDF92C0017
:103CA0002DF81500BDF9281005A820F81510681C7E
:103CB000C5B210214648FDF7D3FE08B90A2DE9DB4D
:103CC00010214348FDF7CCFE10B100204149087097
:103CD0000A2D7BD1BDF90070B846BDF91490CA46D3
:103CE00001240EE03DF91400B84202DA3DF91470E7
:103CF00005E03DF91400404501DD3DF91480601CEC
:103D0000C4B20A2CEEDB012412E005A830F914003D
:103D1000484503DA05A830F9149007E005A830F902
:103D20001400504502DD05A830F914A0601CC4B28F
:103D30000A2CEADBBDF90000BDF902100844BDF908
:103D400004100844BDF906100844BDF908100844E1
:103D5000BDF90A100844BDF90C100844BDF90E1055
:103D60000844BDF910100844BDF912100844C01BE6
:103D7000A0EB0800C01000B23080BDF91410BDF9EE
:103D800016000144BDF918000144BDF91A000144B0
:103D9000BDF91C000144BDF91E000144BDF920001D
:103DA0000144BDF922000144BDF924000144BDF9DC
:103DB00026000844A0EB0900A0EB0A00C01000B2E6
:103DC000708001200CB0BDE8F087FFE70020F9E724
:103DD00000180140E80000202DE9F04104460D469E
:103DE0009020FFF745FF06B20120FFF774FED020B8
:103DF000FFF73EFF07B226802F80BDE8F08100006C
:103E000070B5002504211148FDF733FE01210F484C
:103E1000FDF731FE002414E001210C48FDF729FED6
:103E200008210A48FDF71CFE0646C4F10B0006FAFD
:103E300000F0284385B201210448FDF71CFE601CF8
:103E4000C4B20C2CE8DB284670BD0000001801400D
:103E500010B500242748007820B1012811D002288D
:103E60003FD12FE010212448FDF7FAFD20B90120B1
:103E700020490870002403E000201E490870002437
:103E800034E010211C48FDF7EBFDA0B91B48006889
:103E9000401C1A49086008460068022806D900201C
:103EA000086002201349087001240AE0012011492A
:103EB0000870002405E00020104908600D490870D2
:103EC000002413E010210C48FDF7CAFD20B90220A0
:103ED00008490870012403E0002006490870002406
:103EE00004E0002003490870002400BF00BF204602
:103EF00010BD0000E900002000180140EC00002087
:103F000038B50446B4F90400401C20B9B4F90400E3
:103F1000401C00B938BD628891B2228890B2FFF788
:103F2000DDF907480090B4F90230B4F90020B4F983
:103F30000610B4F90400FDF731FB00BFEAE700000A
:103F40001401002010B5FFF783FF012819D12020AC
:103F5000154908600120091D08600220091F08603A
:103F600012491348FFF7C6FD00BF00BF1048FFF716
:103F7000C7FF0F4800880E49888008464088C880DF
:103F800011E0202008490860012008600220091D76
:103F90000860074800F00EF84FF0FF300449088031
:103FA00048808880C88010BD100C01402800002087
:103FB000F000002010B50446B4F90400401C20B9FC
:103FC000B4F90400401C00B910BDE28891B2A28887
:103FD00090B2FFF77DFBFCF74BFD00BFF4E700005C
:103FE0002DE9F04FB9B004464FF00009CA46002051
:103FF0001E901D900026FE48FEF768FD00211F2040
:10400000FEF75AFD2046FEF741F9FA480088801075
:10401000ADF85400F84800888010ADF85600BDF89F
:104020005400ADF85C00F448008800EB40008010BC
:1040300001B215A84181EF48008800EB40008010D4
:1040400000B2ADF8640015A841894182BDF8640052
:10405000ADF86C00BDF8561015A84183002558E056
:10406000E5480388E348028800210846FDF744FD3F
:10407000E2A6FEF715FD8088DE49098891FBF0F87D
:104080003046FCF797F8A8EB0000470820233A4693
:10409000E0A11FA8009600F05FFAD74909884810F0
:1040A0001FA9FDF7D7FDFEF7FBFC8088D1490988E1
:1040B00091FBF0F0471E681C009007EBD770421090
:1040C0002023D6A11FA800F047FAFEF7E9FCC0881C
:1040D000C9490988C0EB610087B21FA93846FDF7BE
:1040E000B9FDD048FFF7F7FC15AA02EBC5025288CC
:1040F00091B215AA32F8352090B2FDF709FF00BF42
:104100000DA901EBC500FFF7BBFD0028F8D0681C26
:10411000C5B2042DA4DB06AA0DA915A8FFF7ECFB78
:1041200000210C98FCF75CFA00D143E1BDF94E0088
:10413000FCF7F0F903900799FCF79BF88346BDF96B
:104140004C00FCF7E7F903900699FCF792F8594602
:104150000490FCF736F880460899FCF732F8059091
:104160000C99FCF7B8F80746FCF7F6F91FFA80F946
:10417000BDF94E00FCF7CEF903900A99FCF779F8E7
:104180000590BDF94C00FCF7C5F903900999FCF7BF
:1041900070F804900599FCF714F883460B99FCF726
:1041A00010F880460C99FCF796F80746FCF7D4F90E
:1041B0001FFA80FABDF96C00484504DABDF96C00BD
:1041C000A9EB000003E0BDF96C00A0EB090080B290
:1041D0001E90BDF96E00504504DABDF96E00AAEBE1
:1041E000000003E0BDF96E00A0EB0A0080B21D9054
:1041F0001E980F2802DC1D980F2800DDDAE00C98CD
:10420000FCF7BEF9CDE902010698FCF7B9F90746BB
:104210000022854BFCF79DF8CDE90001DDE9022382
:10422000FCF709F9CDE90401FCF7BDF904EB440101
:104230007E4A42F831000C98FCF7A2F9CDE9020160
:104240000798FCF79DF907460022774BFCF781F8A9
:10425000CDE90001DDE90223FCF7EDF8CDE9040129
:10426000FCF7A1F904EB4401704A02EBC10148607C
:104270000C98FCF785F9CDE902010898FCF780F964
:1042800007460022684BFCF764F8CDE90001DDE940
:104290000223FCF7D0F8CDE90401FCF784F904EB24
:1042A0004401624A02EBC10188600C98FCF768F98E
:1042B000CDE904010998FCF763F900225A4BCDE9D6
:1042C0000001FCF746F8CDE90201DDE90423FCF723
:1042D000B2F80746FCF767F904EB4401534A02EBD6
:1042E000C101C8600C98FCF74BF9CDE904010A98AC
:1042F000FCF746F900224C4BCDE90001FCF729F808
:10430000CDE90201DDE90423FCF795F80746FCF747
:104310004AF904EB4401454A02EBC10108610C98DB
:10432000FCF72EF9CDE902010B98FCF729F90022E0
:104330003D4BCDE90001FCF70CF80746DDE902230F
:10434000FCF779F8CDE90401FCF72DF904EB440101
:10435000364A02EBC1014861274803882548028894
:1043600000210846FDF7C8FB4FF4FC60FEF7B4FBE4
:104370002FA6FEF795FB80881E49098891FBF0F86F
:104380003046FBF717FFA8EB0000470820233A460A
:1043900020A11FA8009600F0DFF8174909884810EF
:1043A0001FA9FDF757FC2748FFF795FB012039B0FF
:1043B000BDE8F08F104803880E48028800210846A7
:1043C000FDF79AFB4FF47840FEF786FB1EA6FEF73A
:1043D00067FB80880749098891FBF0F83046FBF7B6
:1043E000E9FEA8EB0000470820233A4609A133E084
:1043F000F8000020180000201A000020546F756398
:10440000682043616C696272617465202E2E2E2EC5
:104410002E2E0000252A632573000000252A63251F
:1044200064000000E09304000000F03F280000203A
:1044300043616C696272617465205375636365647E
:104440000000000040420F0043616C6962726174B9
:1044500065206661696C00001FA8009600F07CF87A
:104460001649098848101FA9FDF7F4FB14A6FEF7AA
:1044700017FB80881549098891FBF0F83046FBF757
:1044800099FEA8EB0000470820233A46AFF27C01D2
:104490001FA8009600F060F8FEF702FBC0880749ED
:1044A000098800EB610087B21FA93846FDF7D2FBEF
:1044B0000748FFF710FB002079E700001A000020F2
:1044C00074727920616761696E0000001800002035
:1044D00040420F0070B5054604211648FDF7C9FAA1
:1044E00001211448FDF7C5FA00241FE0C4F10700BC
:1044F00045FA00F000F0010020B104210D48FDF75D
:10450000BAFA03E004210B48FDF7B3FA0520FFF7E0
:10451000E2FA01210748FDF7AEFA0520FFF7DBFAC2
:1045200001210448FDF7A5FA601CC4B2082CDDDBAC
:1045300070BD0000001801400FB4054B10B503A971
:10454000044A029800F02CF810BC5DF814FB00003F
:10455000F54C0008280100200FB4084B10B504A941
:1045600002AA039800F01CF8044602A9002000F0FB
:10457000B8F9204610BC5DF814FB0000E3480008C1
:1045800002E008C8121F08C1002AFAD1704770471C
:10459000002001E001C1121F002AFBD1704700007A
:1045A0002DE9FF4F8BB088460546002606E02528FA
:1045B0000BD0DDE90D1290476D1C761C2878002881
:1045C000F5D10FB03046BDE8F08F0024A146A246D9
:1045D0000122AE4900E0044315F8013F203B02FAF6
:1045E00003F00842F7D128782A2810D06FF02F0264
:1045F0002878A0F13001092915D809EB890102EBCF
:10460000410144F0020400EB01096D1CF0E758F889
:10461000041B5FEA010903D544F40054C9F1000901
:1046200044F002046D1C28782E2817D115F8010FCC
:1046300044F004042A280ED06FF02F022878A0F14D
:10464000300109290AD80AEB8A0102EB410100EB8B
:10465000010A6D1CF2E758F804AB6D1C28786C2831
:104660000FD006DC4C2817D068280DD06A2814D14A
:1046700004E0742810D07A280FD10DE044F400141F
:104680000AE044F4801401E044F440146978814263
:1046900002D104F580146D1C6D1C2878692865D042
:1046A00006DC00288DD0632827D0642806D15DE081
:1046B0006E2808D073282AD0752877D0DDE90D122E
:1046C0009047761CE0E0C4F30250022809D003288A
:1046D0000DD0D8F8001004280DD00E6008F10408A1
:1046E000D2E0D8F80010F217C1E90062F6E7D8F876
:1046F00000100E80F2E70E70F0E718F8041B8DF83A
:10470000001000208DF80100EB46012003E058F86E
:1047100004BB4FF0FF3061074FF0000701D40AE0FF
:104720007F1C57450DDA8742FADB1BF8071000297A
:10473000F6D106E07F1C8742FCDB1BF8071000293E
:10474000F8D1DDE90D23A9EB07008146214600F0F1
:10475000B1F83044C61904E0DDE90D121BF8010B75
:1047600090477F1EF8D22146484688E058F8040B4F
:10477000C4F302514FF00A0B032900D100B20429FF
:1047800000D140B2002802DA40422D2102E021058A
:1047900005D52B218DF82410012104E006E0E10766
:1047A00010D02021F6E708AF089113E058F8040B69
:1047B000C4F302514FF00A0B032900D180B204293F
:1047C00000D1C0B20021EEE75946FBF713FF3031AC
:1047D00007F8011D0028F7D1ADEB070000F1200B11
:1047E000600702D524F4803401E04FF0010ADA4575
:1047F00002DDAAEB0B0000E00020824600EB0B017B
:1048000008980144A9EB01000A90E00306D4DDE911
:104810000D2321460A9800F04DF806444FF0000998
:1048200008E009A911F80900DDE90D12904709F126
:104830000109761C08998945F3DBE0030CD5DDE915
:104840000D2321460A9800F035F8064404E0DDE91E
:104850000D1230209047761CBAF10001AAF1010A2E
:10486000F5DC05E0DDE90D1217F8010B9047761C29
:10487000BBF10001ABF1010BF4DC0A982146DDE944
:104880000D2300F005F806446D1C97E60928010089
:104890002DE9F041044600251E461746880404D43D
:1048A00005E039462020B0476D1C641EF9D5284626
:1048B000BDE8F0812DE9F041044600251E469046F2
:1048C000C80301D5302700E02027880404D505E07F
:1048D00041463846B0476D1C641EF9D52846BDE8F0
:1048E000F0810A68531C0B601070704702468A42C0
:1048F00002DD501A80B27047881A80B2FBE77CB59F
:1049000005460C4605B10CB901207CBD284600F0D7
:10491000D9FB00F069FC204600F01AFD6A4601A9A7
:10492000204600F026F99DF8040084F828009DF840
:10493000002054F822109DF8042054F8220000F0C2
:104940006FF860850020E0E72DE9FF4F83B00C464B
:1049500015461E46109FB44202DA301B00B201E039
:10496000A01B00B28146B44201DA012001E04FF001
:10497000FF300290BD4202DAE81B00B201E0781B72
:1049800000B28246BD4201DA012001E04FF0FF3063
:10499000019009EB0A000FFA80F821E0FF232A4674
:1049A0002146039800F01AFDB44202D1BD4200D165
:1049B00017E04FEA48000FFA80FBD34506DB08EB0F
:1049C0000A000FFA80F80298204404B2CB4506DCB6
:1049D00008EB09000FFA80F80198284405B200BFDF
:1049E000DCE700BF07B0BDE8F08F70B502460C46AB
:1049F000111B002A01DB104600E050420546002949
:104A000001DC002070BD012D00DA0125642048433F
:104A10006E1890FBF6F3642B00D9642398B2F1E78B
:104A200070B502460C46111B002A01DB104600E05F
:104A300050420546002901DC002070BD012D00DA3E
:104A40000125642048436E1890FBF6F3642B00D9CF
:104A5000642398B2F1E770B502460C46111B002A98
:104A600001DB104600E050420546002901DC002031
:104A700070BD012D00DA0125642048436E1890FBBB
:104A8000F6F3642B00D9642398B2F1E770B50246BF
:104A9000002402B109B9012070BD4FF6FF700880F3
:104AA000888000204880C880002322E003EB430573
:104AB00002EB8500057905B919E005880E88B54235
:104AC00001DA05880D8005884E88B54201DD05882C
:104AD0004D8045888E88B54201DA45888D804588AD
:104AE000CE88B54201DD4588CD80012400BF581C29
:104AF00083B2B2F8000C9842D8DC0CB90220CBE7A4
:104B000048880D88401B042804D3C8888D88401B22
:104B1000042801D20220BFE70020BDE730B5002401
:104B20000C7001241470147850F824400D7850F85B
:104B30002550AC4203DD01240C70002414700223C4
:104B400014E050F823400D7850F82550AC4203DDB6
:104B50000C7814700B7007E050F82340157850F86B
:104B60002550AC4200DD13705C1CE3B20A2BE8D385
:104B700030BD30B500240C7001241470147850F846
:104B800024400D7850F82550AC4203DD01240C7010
:104B900000241470022314E050F823400D7850F8DC
:104BA0002550AC4203DD0C7814700B7007E050F810
:104BB0002340157850F82550AC4200DD13705C1C82
:104BC000E3B20A2BE8D330BD30B500240C700124C9
:104BD0001470147850F824400D7850F82550AC42E9
:104BE00003DD01240C7000241470022314E050F83B
:104BF00023400D7850F82550AC4203DD0C7814703A
:104C00000B7007E050F82340157850F82550AC425F
:104C100000DD13705C1CE3B20A2BE8D330BD00004A
:104C20002DE9FC4180460D46B8F1000F00D015B9C2
:104C30000120BDE8FC8100241FE0294951F824002F
:104C400000270DE004EB041101EB4411254A02EBAF
:104C50000111C95718F8072001FB0200791C8FB217
:104C6000B7F5447FEED3002801DD014600E00021C6
:104C70001D4A42F82410601C84B2402CDDD300266B
:104C800016E01A4951F8260000240BE0184901EB00
:104C900086110957144A52F82420121201FB02000F
:104CA000611C8CB2402CF1D345F82600701C86B2F2
:104CB0000A2EE6D36A4601A92846FFF72FFF9DF882
:104CC000040085F828009DF8002055F822109DF872
:104CD000042055F82200FFF788FE68850020A8E729
:104CE000F8530108F88F0008C01100207857010818
:104CF000F854010870B504460D46E1B20548FEF7C8
:104D0000F5FD00BF80210348FEF776FD0028F9D0AD
:104D1000204670BD00380140FDF728FBFEF760FF1C
:104D200000210320FBF76EFDFEF726FDFDF7DAFEFE
:104D300009A0FFF701FC1448FFF7FEFB0320FDF775
:104D4000A5FA12480078FDF701FFFBF7BFFE01E06E
:104D5000FFF7F8F8FCE700000D0A202A2A2A2A2A81
:104D60002A2A2A2A2A20E8A7A6E691B8E794BBE6D1
:104D70009DBFE7A88BE5BA8F202A2A2A2A2A2A2A49
:104D80002A2A2A2A200D0A00548701081C00002024
:104D90002DE9F04F044617469C46B1F802A0B1F841
:104DA00000B0AAEB0B0A0AF10102B1F806A0B1F8B3
:104DB00004B0AAEB0B0A0AF101039A4201D9924608
:104DC00000E09A465046B4F800A0B1F800B0AAEB53
:104DD0000B0A0AEB8A0A4FEA8A0ABAFBF0F8B4F81F
:104DE00002A0B1F804B0AAEB0B0A0AEB8A0A4FEA58
:104DF0008A0ABAFBF0F904250426824209D202EBA2
:104E0000820A4FEA8A0ABAFBF0FACAF1140A05EBE1
:104E10005A05834209D203EB830A4FEA8A0ABAFB96
:104E2000F0FACAF1140A06EB5A0605EB080A0FFA63
:104E30008AFAA7F800A006EB090A0FFA8AFAACF87A
:104E400000A0BDE8F08F00002DE9FC4107460C46AC
:104E500007B114B90120BDE8FC81002518E018490C
:104E600051F8250000260CE005EB051101EB45117A
:104E7000144A02EB01118957BA5D01FB0200711C53
:104E80008EB2B6F5447FEFD344F82500681C85B296
:104E90000A2DE4D36A4601A92046FFF795FE9DF846
:104EA000040084F828009DF8002054F822109DF892
:104EB000042054F82200FFF7CEFD60850020CAE7E9
:104EC0002C8701088C68010870B504460D4604B1B2
:104ED0000DB9012070BDB4F8000CFF2801D90320E2
:104EE000F8E7B4F8000CC0B1B4F8000C401E00EBB9
:104EF000400004EB80063079297988420DD1298859
:104F00003088FFF7F3FC022807D269887088FFF722
:104F1000EDFC022801D20020DCE7B4F8000C00EB25
:104F2000400004EB800095E80E000EC0B4F8000CC1
:104F3000401CA4F8000C0020CCE710B5044604B9CE
:104F400010BD4FF444712046FBF729F900BFF7E785
:104F500000B970470021A0F8001C00BFF9E7024625
:104F60000AB901207047002105E0505C08B100201B
:104F7000F8E7481C81B2B1F5447FF6D30120F1E790
:104F80002DE9F04786B004460E464FF00008C146B2
:104F9000C24604B11EB9012006B0BDE8F087304614
:104FA000FFF7CBFF04A92046FFF770FD08B10220F0
:104FB000F2E700252DE005EB450004EB800738798A
:104FC00010B94FF0000A22E002AB03AA04A9384648
:104FD000FFF7DEFEBAF1000F0AD0BDF9080000901D
:104FE000BDF90C304A4641463046FFF7ADFC07E0BC
:104FF000FF23BDF90820BDF90C10304600F0EEF992
:10500000BDF90C80BDF908904FF0010A00BF681C83
:1050100085B2B4F8000CA842CDDC304600F0F4F9BB
:105020000020B9E7FFF766BE70B58CB005460C46A8
:1050300005B114B901200CB070BD2846FFF78FFFF1
:1050400008B10220F7E7194800782070002060605E
:105050001648007802280BD101A92846FFF74FFC1B
:1050600006469DF82C006070BDF82E0060801BE0A5
:105070000E48007801280BD101A92846FFF7D0FD82
:1050800006469DF82C006070BDF82E0060800BE095
:1050900001A92846FFF7D8FE06469DF82C0060704F
:1050A000BDF82E00608000BF3046C4E72401002018
:1050B00018B1012801D0022801D1014908707047B8
:1050C000240100202DE9F14F82B0002080E0002172
:1050D0007AE0002274E04FF0000900255CE0002631
:1050E00056E005EB410C0CF0FF0CCDF804C006EBCC
:1050F000420C0CF0FF0CCDF800C0DFF8E0C05CF80B
:10510000207000233DE0DDF804809844A8F1010CF4
:10511000BCF1000F02DBBCF11C0F00DB2DE0002412
:1051200028E0DDF800A0A244AAF10108B8F1000FC0
:1051300002DBB8F11C0F00DB18E01FFA88FA1FFA37
:105140008CFBCBEBCB0B0AEB8B0BDDF808A01AF832
:105150000BA000EBC00BDFF888E0F34403EB430E39
:10516000F3441BF904B00AFB0B7700BF04F10108FC
:1051700008F0FF04032CD4D300BF03F1010C0CF0A2
:10518000FF03032BBFD34F4500DDB946771CFEB2AA
:10519000022EA6D36F1CFDB2022DA0D34FEA292701
:1051A00000EB001C0CEB401CDFF8388008EB0C1CFB
:1051B000C1EBC1080CEBC80C4CF82270571CFAB2BA
:1051C0000E2A88D34F1CF9B20E2982D3471CF8B29D
:1051D0000428FFF47CAFBDE8FE8F0000C45701082F
:1051E000A0570108C01200202DE9FE4F0020A1E0C9
:1051F000002198E000228FE04FF0000CCDF808C0AD
:10520000002671E0002769E006EB410808F0FF087E
:10521000CDF8048007EB420808F0FF08CDF80080C5
:10522000DFF81C8158F820C000234BE0002443E045
:10523000DDF80490A144A9F10108B8F1000F02DBE8
:10524000B8F10E0F00DB33E000252EE0DDF800A002
:10525000AA44AAF10109B9F1000F02DBB9F10E0F5E
:1052600000DB1EE003EB031A0AEB431ADFF8D4B0AD
:105270000BEB0A1AC8EBC80B0AEBCB0A5AF829A0A9
:1052800000EBC00BDFF8C0E00EEB8B0B03EBC30EA3
:10529000F34404EB440EF3441BF905B00AFB0BCCBA
:1052A00000BF05F1010909F0FF05032DCED300BFB2
:1052B00004F1010808F0FF04032CB9D303F101083D
:1052C00008F0FF03042BB1D3DDF80880C44501DDED
:1052D000CDF808C007F1010C0CF0FF07022F93D3A3
:1052E00006F1010C0CF0FF06022E8BD3DDF808C08E
:1052F0004FEA2C2C00EB001808EB4018DFF84C901C
:1053000009EB8808C1EBC10908EB890848F822C0FD
:1053100002F1010C0CF0FF02072AFFF46DAF01F15E
:10532000010C0CF0FF010729FFF464AF00F1010C40
:105330000CF0FF000828FFF45BAFBDE8FE8F000013
:10534000F4580108C0120020D4570108001F0020A3
:105350002DE9F0410446002035E01D4F57F820505C
:105360000026002129E0002223E000231DE001EBBC
:10537000011707EB4117DFF85CC00CEB8707C2EBA6
:10538000C20C07EB8C0757F8237000EB001C0CEBEA
:10539000401CDFF8448008EBCC0C1CF906C007FB6E
:1053A0000C55771CBEB25F1CFBB2072BDFD3571C1A
:1053B000FAB2072AD9D34F1CF9B20829D3D344F83B
:1053C0002050451CE8B20A28C7D3BDE8F081000090
:1053D00064680108001F00201459010830B538B175
:1053E000002905DB002A03DB1C2901DA1C2A00DB6B
:1053F00030BDC2EBC20501EB8505ACB2055D9D4237
:1054000000DA035500BFF3E7F0B5ADF5457D07467B
:1054100017B90DF5457DF0BD4FF44472394601A82A
:10542000FAF7A4FE002429E01C20B4FBF0F100FBF5
:105430001145B4FBF0F601A8005D00B91CE0681E40
:1054400001B2A02332B23846FFF7C8FFA02332B220
:10545000681C01B23846FFF7C1FF701E02B2A023DC
:1054600029B23846FFF7BAFFA023701C02B229B256
:105470003846FFF7B3FF00BF601C84B2B4F5447F29
:10548000D2D300BFC5E7000000000000000000000C
:105490000000000000000000001818181818180874
:1054A000000818000000000000342424240000003C
:1054B0000000000000000000000016247F242424C7
:1054C0007E2424000000000000083E6848681C1686
:1054D00012127C10100000000061D29674081016A1
:1054E0002949C6000000000000003C646438724A8C
:1054F000CE467F00000000000018181818000000B9
:1055000000000000000000000004081810303030D7
:10551000301010180C04000000201008080C0404BF
:10552000040C08181020000000080A341C6A080047
:105530000000000000000000000000001818187FA4
:105540001818180000000000000000000000000013
:105550000018180830000000000000000000003CA7
:10556000000000000000000000000000000000003B
:105570000018180000000000000206040C080810C3
:10558000102020400000000000003C6642475B7392
:1055900042663C0000000000000018784808080837
:1055A00008087E000000000000003C4606060408D3
:1055B00010207E000000000000007C0606043C0273
:1055C00002067C000000000000000C1C142464444F
:1055D000FF0404000000000000007E6060607E02A6
:1055E00002067C000000000000001E306048764289
:1055F00042623C000000000000007E0206040C082D
:10560000181030000000000000003C6242361C66AA
:1056100042423C000000000000003C664242661A24
:1056200002047800000000000000000018180000CC
:10563000001818000000000000000000181800000A
:105640000018180830000000000000000418306046
:10565000100C0600000000000000000000007E00AA
:105660007E0000000000000000000000301804066A
:105670000C1020000000000000301C060606181068
:105680000010100000000000001C224141DDB5A503
:10569000A5AF94C0403C00000000181C34242662D2
:1056A0007E43C1000000000000007C4642467C4270
:1056B00042427C000000000000001E2040404040AC
:1056C00040603E000000000000007C46424343432F
:1056D000424678000000000000007E6060607E604E
:1056E00060607E000000000000007E6060607E6000
:1056F000606060000000000000001E604040CE427C
:1057000042623E00000000000000424242427E42EF
:10571000424242000000000000007E1818181818CD
:1057200018187E000000000000007C04040404043B
:1057300004447800000000000000424448507058C3
:105740004C444200000000000000202020202020C7
:1057500020203E000000000000006266675F5B5B87
:10576000C1C1C100000000000000626272525A4ACA
:105770004E4646000000000000003C6243C3C3C325
:1057800043623C000000000000007C464242467834
:10579000404040000000000000003C6243C3C3C31F
:1057A00043623C180F00000000007C6662667C6C5F
:1057B000646662000000000000003E6040601C065D
:1057C00002027C000000000000007F181818181862
:1057D00018181800000000000000424242424242F5
:1057E00042623C00000000000000C14342622624E7
:1057F000341C1800000000000000C1C141495B5B7F
:105800007666660000000000000043663418181C2D
:105810002466C300000000000000C14266341C186A
:10582000181818000000000000007E02040C181078
:1058300020607E0000000000001C101010101010EE
:1058400010101010101C000000402020101008083C
:105850000C04060200000000003C0C0C0C0C0C0CAC
:105860000C0C0C0C0C3C00000000181C2462000006
:105870000000000000000000000000000000000028
:105880000000000000FF00000020100000000000E9
:105890000000000000000000000000003C06023E86
:1058A00042467A0000000000004040405C624242F4
:1058B00042427C0000000000000000001E2060400A
:1058C00060203E0000000000000202023E624242F0
:1058D00042663A0000000000000000003C62427E88
:1058E00040603E0000000000000F1810107E1010F5
:1058F0001010100000000000000000003F6642662B
:1059000058403E43423C0000004040405C624242FE
:105910004242420000000000001818007808080801
:1059200008087E000000000000040C007C04040451
:10593000040404040C78000000606060626C7870FD
:105940006864620000000000007808080808080881
:1059500008087E000000000000000000764B4B4B62
:105960004B4B4B0000000000000000005C62424214
:105970004242420000000000000000003C6242433E
:1059800042623C0000000000000000005C624242F5
:1059900042427C4040400000000000003E62424223
:1059A00042663A0202020000000000006E7263606C
:1059B0006060600000000000000000003E20203C0D
:1059C00006027C000000000000001010FE10101005
:1059D00010101E0000000000000000004242424281
:1059E00042663A00000000000000000043426624C6
:1059F000341818000000000000000000C1C15B5A0C
:105A00005E666600000000000000000062261C18B0
:105A10001C266200000000000000000043426624D3
:105A2000341C181830E00000000000007E060C183E
:105A300010207E0000000000000E181010103070C2
:105A400010101010180E00000808080808080808B0
:105A500008080808080800000030180808080C0E9C
:105A60000808080818300000000000000000714B12
:105A70000600000000000000000000000000000020
:105A80000000000000000000000000000000000016
:105A90000000000000000000000000000000000006
:105AA00000000000000000000000000000000000F6
:105AB00003800180018001800180018001800180DC
:105AC000018001800000000003C003C0000000004E
:105AD00000000000000000000000000000000000C6
