:1000770000000180038006C00C7018383FFE6FF245
:1000870001801FF81FF809980DB005B03FFE00006A
:10009700000001803FFE3FFE12603A68766C26E45E
:1000A7001CC009807FFE03C003600E38781E200045
:1000B700180018F818C87E885AE85AA85AB85AB8C3
:1000C7005AB85A885F885D8A1B0E1B0E0000000015
:0701D600E4FF000FBF14FB62
:0101DD0022FF
:1001A200EF139290EFC313139291EF1313543F1373
:0C01B2009292EF131313541F1392932228
:10018200E4FDEE30E703D38001C39294C295D29589
:0F019200EF25E0FFEE33FE0DBD10E7C296D296CB
:0101A100223B
:10015600AB07AA06A905AF0119EF601BEB25E0FF67
:10016600EA33FEEA7C0030E7047D0180027D00EE82
:0C0176004CFAEF4DFB80DFAE02AF03221D
:10012800AB07AA06A905AF0119EF601DEAC313FEC4
:10013800EB13FFEB30E0067C807D0080047C007DC3
:0E01480000EE4CFAEF4DFB80DDAE02AF03225D
:040003008F0C8D0DC4
:10000700E4F50EE50CC43354E02477F582E43400BC
:10001700F58375F002E50E1201CAE493FEE50CC400
:100027003354E02478F582E43400F58375F002E573
:100037000E1201CAE493FDEEF50FEDF510AD0D308C
:10004700B206FF1201568007AF10AE0F1201288EBD
:100057000F8F10D297AF0E1201A2AF10AE0F120181
:0F00670082C2971201D6050EE50EC39410409485
:010076002267
:1000D700E4F508F509F50AF50B7590FFAD09AF08CA
:1000E700120003050BE50B7002050AC39428E50A05
:1000F700940040E8E4F50AF50B0509E5099410407A
:10010700DBE4F50930B20D0508E508940340CDE4BA
:10011700F50880C8E508700575080280BF150880D6
:01012700BB1C
:030000000201BE3C
:0C01BE00787FE4F6D8FD7581100200D7B0
:0C01CA00A42582F582E5F03583F5832240
:00000001FF
