:1000030000000180038006C00C7018383FFE6FF2B9
:1000130001801FF81FF809980DB005B03FFE0000DE
:10002300000001803FFE3FFE12603A68766C26E4D2
:100033001CC009807FFE03C003600E38781E2000B9
:10004300180018F818C87E885AE85AA85AB85AB837
:100053005AB85A885F885D8A1B0E1B0E0000000089
:07014E00E4FF000FBF14FBEA
:010155002287
:10011A00EF139290EFC313139291EF1313543F13FB
:0C012A009292EF131313541F13929322B0
:1000FA00E4FDEE30E703D38001C39294C295D29512
:0F010A00EF25E0FFEE33FE0DBD10E7C296D29653
:0101190022C3
:020063008F0A02
:10006500E4F50BE50AC43354E02403F582E43400D7
:10007500F58375F002E50B120142E493FEE50AC42F
:100085003354E02404F582E43400F58375F002E589
:100095000B120142E493FDEDFBAA06D297AF0B12BA
:1000A500011AEBF4FFEAF4FE1200FAC29712014EB0
:0900B500050BE50BC3941040AAF1
:0100BE00221F
:1000BF00E4FCF508F5097590FFAF0412006305091C
:1000CF00E50970020508C394B4E508940040EAE41A
:1000DF00F508F50930B20A0CEC940340DCE4FC801F
:0B00EF00D8EC70047C0280D11C80CE95
:03000000020136C4
:0C013600787FE4F6D8FD75810B0200BF55
:0C014200A42582F582E5F03583F58322C8
:00000001FF
