:10016500000080018003C006700C3818FE3FF26F56
:100175008001F81FF81F9809B00DB005FE3F00007B
:1001850000008001FE3FFE3F6012683A6C76E4266F
:10019500C01C8009FE7FC0036003380E1E78002056
:1001A5000018F818C818887EE85AA85AB85AB85AD4
:1001B500B85A885A885F8A5D0E1B0E1B0000000026
:0D02C100010800010900010A00020B000005
:0902B300AF0FAE0E12022DC28342
:0402BC007FC8DFFE1A
:0102C000221B
:10025B00AB07AA06A905AF0119EF601BEB25E0FF61
:10026B00EA33FEEA7C0030E7047D0180027D00EE7C
:0C027B004CFAEF4DFB80DFAE02AF032217
:1001FF00AB07AA06A905AF0119EF601DEAC313FEED
:10020F00EB13FFEB30E0067C807D0080047C007DEB
:0E021F0000EE4CFAEF4DFB80DDAE02AF032285
:04022D00AD07AC0667
:100231007F007E80E4FBEC5EF583ED5F4583600328
:10024100D38001C39280C281D281EEC313FEEF132A
:09025100FF0BBB10E1C282D28256
:01025A002281
:1000FC0030B20320B30620B20D30B30AE50AC45463
:10010C00F02FF5108014E5092FF510E510C394308D
:10011C00400874D02510F51080F1E51025E0FFE4BF
:10012C0033AD07FC74662DF58274013CF583E493C2
:10013C00FE74652DF58274013CF583E493FDEDFFAF
:10014C0030B20A30B307AD0812025B800B20B20844
:08015C0030B305AD081201FFEC
:010164002278
:10028700EF139290EFC313139291EF1313543F138D
:0C0297009292300003D38001C3929322A6
:1001C500E4F50DAF0D1200FC8E0E8F0FD283C20029
:1001D500AF0D1202871202B3E50D2408FF1200FCD1
:1001E5008E0E8F0FD283D200AF0D1202871202B38B
:0901F500050DE50DC3940840CA94
:0101FE0022DE
:10008F00050CE50C7002050BC39419E50B940040A9
:10009F005BE4F50BF50C30B21B30B3180508E5081F
:1000AF00C394104047E4F508050AE50A9403403C61
:1000BF00E4F50A2220B21830B315E508700E750862
:1000CF000FE50A7004750A0222150A22150822305C
:1000DF00B21020B30D0509E509C39430400EE4F5C5
:0D00EF000922E509700475092F2215092268
:1002A300E4F580F59043B00C1201C512008F80F87D
:03000000020003F8
:0C000300787FE4F6D8FD75812002004AE9
:10000F000202A3E493A3F8E493A34003F68001F262
:10001F0008DFF48029E493A3F85407240CC8C333F2
:10002F00C4540F4420C8834004F456800146F6DFC1
:10003F00E4800B01020408102040809002C1E47E8E
:10004F00019360BCA3FF543F30E509541FFEE493B6
:10005F00A360010ECF54C025E060A840B8E493A37D
:10006F00FAE493A3F8E493A3C8C582C8CAC583CAA8
:10007F00F0A3C8C582C8CAC583CADFE9DEE780BE60
:0102CE00002F
:00000001FF
