:100060003C666E766666663C183818181818187E56
:100070003C66060C1830667E3C66061C0606663C2E
:100080000C1C3C6C7E0C0C0C7E60607C0606663C96
:100090001C30607C6666663C7E66060C1818181874
:1000A0003C66663C6666663C3C6666663E060C38A8
:0A00B0000802000202040004010728
:0E012000EF1FAC0670011E4C60030080F3223E
:04010500AB07AA0694
:10010900900000C3E5829BE5839A500A7FC87E0070
:06011900120120A380ED9D
:01011F0022BD
:02000300A9074B
:10000500E4FAE975F008A42460F582E43400F58388
:10001500E5822AF582E43583F583E493FB30B20C5F
:10002500A805FF08800123D8FDFB800CA805AF03B8
:10003500EF08800103D8FDFB7401A802088002C304
:1000450033D8FCF590EBF4F5A07FFA7E0012012081
:0A005500E4F59075A0FF0ABA08A8B0
:01005F00227E
:1000BA00E4F508F509F50AF50BF59075A0FF43B0CC
:1000CA0004E5089000B093FFAD09120003050BE5A3
:1000DA000B7002050AC3943CE50A940040E3E4F578
:1000EA000AF50B0509E509940840D6E4F50905085F
:0B00FA00E508940A40CBE4F50880C63E
:0300000002012ECC
:0C012E00787FE4F6D8FD75810B0200BA62
:00000001FF
