:10016D00020B0000010A08010900C102C101C10012
:06017D00010D0001080065
:10014B00EF14600E14600F14601024037010759080
:10015B000C2275900A227590212275901122E4F5DC
:02016B009022E0
:0400060075900922C6
:10012400E50914600F14601114601524037011752F
:1001340009018008750902800A750903750A0222FB
:07014400E4F509750A082229
:03000B000200FAF6
:1000FA00C0E0C0D0758C3C758AB0050CE50C700266
:10010A00050BC3E50C9414E50B94004008750B002D
:0A011A00750C00D202D0D0D0E03204
:0300030002018473
:03018400D2013273
:10009A00758901758C3C758AB0D288D2A8D2A9D24A
:1000AA00AFD28C803A30011A200017C201D20085E3
:1000BA000908850A0DE4F50BF50CC202750A0A1245
:1000CA0000063002E0C202E50AD394004002150A93
:1000DA00E50A70D130000FC200850809850D0AAF04
:1000EA000912014B80BF120124AF0912014B80B5DE
:0300000002000EED
:0C000E00787FE4F6D8FD758120020055D3
:10001A0002009AE493A3F8E493A34003F68001F262
:10002A0008DFF48029E493A3F85407240CC8C333E7
:10003A00C4540F4420C8834004F456800146F6DFB6
:10004A00E4800B010204081020408090016DE47ED8
:10005A00019360BCA3FF543F30E509541FFEE493AB
:10006A00A360010ECF54C025E060A840B8E493A372
:10007A00FAE493A3F8E493A3C8C582C8CAC583CA9D
:10008A00F0A3C8C582C8CAC583CADFE9DEE780BE55
:01018300007B
:00000001FF
