:1001A500050A50A055AAFF003F065B4F666D7D0707
:1001B5007F6F010601060189018901B901B901892C
:1001C5000000015E015E014A014A01260126010681
:1001D50000000A0A0A0A0A0A0A0A0A0A0A0A0A0A8E
:1001E5000A0A014A014A015E01890189015E014A43
:1001F5000126010601060126014A014A01260126BA
:1002050000000A0A0A0A0A0A0A0A0A0A0A0A0A0A5D
:020215000A0AD3
:10033100010800010900010D00010A00010F00017F
:080341000E00010B00010C008D
:0A000E00AF0FEF9001AE93F5A022B2
:1002A700EF4E7005C28CC2B7227C007D021200ECB3
:1002B700A804A905AA06AB077F407E427D0F7C00F4
:1002C70012005A8F158E148D138C12C3E49FFFE40E
:1002D7009EF508EFF50985088C85098AC28DD28CB1
:0102E70022F4
:10026100E50E701DE50B25E024B7F582E43401F5B8
:1002710083E493F510740193F511E50B9001D78098
:100281001BE50B25E024E7F582E43401F583E493D3
:10029100F510740193F511E50B90020793F50CAF7E
:0602A10011AE100202A7DD
:10031700050BE50BC39410400EE4F50B050EE50E37
:0A03270094024003E4F50E020261A7
:10034A00E50CD394004002150CE50C700312031758
:01035A002280
:03000B0002035B92
:09035B0085088C85098AB2B732CD
:03001B00020217C7
:10021700C0E0C083C082C0D075D000C007758D3CD8
:10022700758BB0E50AC394FA5002050A050DE50D72
:10023700C39414401A750D00050FE50F9408400389
:10024700750F00AF0FEF9001A593F59012000ED038
:0A02570007D0D0D082D083D0E0326F
:1002E8009001A5E493F590E4F50F12000E758911BD
:1002F800758D3C758BB0120261D2A9D2ABD2AFD248
:0F0308008EE50AD3940040F9150A12034A80F2D9
:03000000020119E1
:0C011900787FE4F6D8FD758115020160C6
:10001E0075F008758200EF2FFFEE33FECD33CDCC99
:10002E0033CCC58233C5829BED9AEC99E58298401C
:10003E000CF582EE9BFEED9AFDEC99FC0FD5F0D6F9
:10004E00E4CEFBE4CDFAE4CCF9A88222B800C1B923
:10005E000059BA002DEC8BF084CFCECDFCE5F0CB61
:10006E00F97818EF2FFFEE33FEED33FDEC33FCEB9A
:10007E0033FB10D703994004EB99FB0FD8E5E4F955
:10008E00FA227818EF2FFFEE33FEED33FDEC33FC42
:10009E00C933C910D7059BE99A4007EC9BFCE99A36
:1000AE00F90FD8E0E4C9FAE4CCFB2275F010EF2F7B
:1000BE00FFEE33FEED33FDCC33CCC833C810D7077B
:1000CE009BEC9AE899400AED9BFDEC9AFCE899F8B6
:0E00DE000FD5F0DAE4CDFBE4CCFAE4C8F92249
:1000EC00EC8EF0A4CCC5F0CCCDF8EFA4CEC5F02DA1
:1000FC00FDE43CFCE8A42EC8C5F03DFDE43CFCEF5F
:0D010C00A4FFE5F028FEE43DFDE43CFC22EC
:100125000202E8E493A3F8E493A34003F68001F206
:1001350008DFF48029E493A3F85407240CC8C333DB
:10014500C4540F4420C8834004F456800146F6DFAA
:10015500E4800B0102040810204080900331E47E06
:10016500019360BCA3FF543F30E509541FFEE4939F
:10017500A360010ECF54C025E060A840B8E493A366
:10018500FAE493A3F8E493A3C8C582C8CAC583CA91
:10019500F0A3C8C582C8CAC583CADFE9DEE780BE49
:0103490000B3
:00000001FF
