:020000040800F2
:1000000028040020450100082511000837070008D2
:1000100021110008B9010008B91200080000000011
:10002000000000000000000000000000691100084E
:1000300027020008000000002711000855120008E0
:100040005F0100085F0100085F0100085F01000810
:100050005F0100085F0100085F0100085F01000800
:100060005F0100085F0100085F0100085F010008F0
:100070005F0100085F0100085F0100085F010008E0
:100080005F0100085F0100085F0100085F010008D0
:100090005F0100085F0100085F0100085F010008C0
:1000A0005F0100085F0100085F0100085F010008B0
:1000B0005F0100085F0100085F0100085F010008A0
:1000C0005F0100085F0100085F0100085F01000890
:1000D0005F0100085F0100085F0100085F01000880
:1000E0005F0100085F0100085F0100085F01000870
:1000F0005F0100085F0100085F0100085F01000860
:100100005F0100085F0100085F0100085F0100084F
:100110005F0100085F0100085F0100085F0100083F
:100120005F0100085F0100085F0100085F0100082F
:10013000DFF80CD000F02EF80048004751160008F8
:10014000280400200648804706480047FEE7FEE7EF
:10015000FEE7FEE7FEE7FEE7FEE7FEE7FEE7FEE777
:10016000591200083101000830B50B460146002045
:100170002022012409E021FA02F59D4205D303FA69
:1001800002F5491B04FA02F52844151EA2F10102EA
:10019000F1DC30BD064C074D06E0E06840F001039D
:1001A00094E8070098471034AC42F6D3FFF7C4FF39
:1001B0004C5300086C53000800BFFEE70178491C4F
:1001C000182291FBF2F302FB131101707047417882
:1001D000491C417041783C2909DB002141700178BC
:1001E000491C182291FBF2F302FB1311017000214C
:1001F000817070478178491C817081783C2911DBBE
:10020000002181704178491C417041783C2909DB0B
:10021000002141700178491C182291FBF2F302FB86
:10022000131101707047704707E042F2283100E077
:1002300000BF0A1EA1F10101FAD1021EA0F10100C6
:10024000F3D1704730B585B00446002000F056FF6A
:100250002F4803882F4802880021084600F080FAC2
:100260002D4800F051FF47F6FF7000F053FF2BA21E
:100270000821382000F0E0FA4FF6E07000F04AFF65
:100280002AA24FF49271142000F0D6FAA0780090C0
:10029000637822782BA101A801F010F82D4800F016
:1002A00033FF4FF4FC6000F035FF01AA2A2118202B
:1002B00000F0C2FA00F050F820780C2190FBF1F227
:1002C00001FB120000EB800061780C2291FBF2F13F
:1002D0000844C5B24FF6E0722421284600F08EF89B
:1002E000607847F6FF72362100F088F8A0784FF466
:1002F0007842402100F082F84FF6FF7000F00AFFCC
:1003000001230322CD21782000F0CAFA05B030BDC8
:10031000020000200000002010000020455832207C
:100320004C434420436C6F636B0000004B313A2B0D
:10033000686F757220204B323A2B6D696E7574654B
:1003400000000000253032643A253032643A25300E
:10035000326400002000002010B54FF6FF7000F05E
:10036000D9FE00234822CD21782000F099FA0023FD
:100370004722CD21782000F093FA002416E00520D2
:1003800094FBF0F100FB114038B94FF6E0734822BE
:100390003E21204600F062F806E040F21F5348225A
:1003A0004421204600F05AF8601CC4B23C2CE6DB25
:1003B0000D4800F0A9FE4FF6FF7000F0ABFE0BA257
:1003C0008F21742000F038FA09A2C521AE2000F078
:1003D00033FA08A2FC21742000F02EFA06A2C521EF
:1003E0003C2000F029FA10BD10000020313200003E
:1003F0003300000036000000390000002DE9F04114
:1004000004460D4616463C2094FBF0F100FB1140DB
:10041000C4B2104830F9140068434FF47A7190FB6D
:10042000F1F0783007B20C4830F91400684390FBC3
:10043000F1F0C0F1CD000FFA80F8304600F06AFE0E
:100440001FFA88F3BAB2CD21782000F0C5FABDE8D2
:10045000F0810000F8160008701700082DE9F05F21
:1004600004460D4616461F463C2094FBF0F100FB67
:100470001140C4B21B4830F9140068434FF47A713C
:1004800090FBF1F078300FFA80F8174830F914003B
:10049000684390FBF1F0C0F1CD000FFA80F91148EC
:1004A00030F91400704390FBF1F078300FFA80FAC5
:1004B0000D4830F91400704390FBF1F0C0F1CD000D
:1004C0000FFA80FB384600F025FE1FFA8BF31FFA67
:1004D0008AF21FFA89F11FFA88F000F07DFABDE870
:1004E000F09F0000F81600087017000851B1820054
:1004F000A2F1C042126842F001038200A2F1C042A0
:10050000136009E08200A2F1C0421268034B1A4056
:100510008300A3F1C0431A6070470000FEFF0F0084
:10052000D0E901121143C2681143026911434269C3
:10053000114382691143C2691143026A1143426A3D
:100540001143826A1143C26A1143026B114302686C
:100550009200A2F1C0421160816808290BD10168A4
:100560008900A1F1C041096841F040020168890099
:10057000A1F1C0410A60416B0968426B526841EACF
:100580000211426B926841EA0221426B928941EA70
:100590000241426B128A41EA0251426B127D41EAEA
:1005A0000261426B926911430268521C9200A2F1EF
:1005B000C0421160C16AB1F5804F1BD1816B0968DF
:1005C000826B526841EA0211826B926841EA022111
:1005D000826B128A41EA0251826B127D41EA02610A
:1005E000826B9269114302689200A2F1C042C2F884
:1005F000041107E06FF0704201688900A1F1C04169
:10060000C1F8042170472DE9F0410246002500267B
:10061000002000230024002791F803C00CF00F05F0
:1006200091F803C00CF0100CBCF1000F03D091F84E
:1006300002C04CEA050591F800C0BCF1000F31D0B2
:10064000146800202BE04FF0010C0CFA00F3B1F815
:1006500000C00CEA03069E4220D183004FF00F0C2D
:100660000CFA03F7BC4305FA03FC4CEA040491F8C6
:1006700003C0BCF1280F06D14FF0010C0CFA00FCAE
:10068000C2F814C00AE091F803C0BCF1480F05D1CC
:100690004FF0010C0CFA00FCC2F810C0401C0828F6
:1006A000D1D31460B1F800C0BCF1FF0F34DD546841
:1006B00000202EE000F1080C4FF0010808FA0CF3BE
:1006C000B1F800C00CEA03069E4221D183004FF02E
:1006D0000F0C0CFA03F7BC4305FA03FC4CEA0404C4
:1006E00091F803C0BCF1280F05D100F1080C08FAFD
:1006F0000CF8C2F8148091F803C0BCF1480F07D180
:1007000000F1080C4FF0010808FA0CF8C2F810804C
:10071000401C0828CED35460BDE8F081024600207A
:1007200093680B400BB1012000E00020704741614D
:1007300070470161704700BFFEE7000010B5044636
:100740002CB14FF480510548FFF7F1FF04E04FF45E
:1007500080510248FFF7EDFF10BD0000001401407A
:100760002DE9F04106460F4614461D462B4622460B
:100770003946304600F0FCFA04FB05F002490988CE
:1007800000F0A9F9BDE8F0810E00002001B502E0FB
:100790000098401E009000980028F9D108BD000084
:1007A0002DE9F05F804689461646A6F120001FFA23
:1007B00080FA1E49096889881C4A1268D28801FBA0
:1007C00002F0C11700EB5171C1F3C7071748006869
:1007D00000680AFB070B15480068C38813480068C7
:1007E00082884946404600F0C3FA2C2000F042FCC3
:1007F000002416E0002510E01BF8040080212941A8
:10080000084020B10A48008800F038FC03E009489D
:10081000008800F033FC681CC5B2082DECDB601CBE
:10082000C4B2BC42E6DBBDE8F09F00000800002037
:100830000C0000200E00002070B505460E46144640
:1008400024E0284613490968898808441249098820
:10085000884205DD00250F480068C088304486B214
:1008600030460C490968C98808440C4909888842FF
:1008700001DD00250026227831462846FFF790FF4B
:10088000641C044800688088284485B220780028C9
:10089000D7D170BD08000020000000200200002019
:1008A0002DE9F05F05460E4691469B4600240FFA5F
:1008B00089F70320A0EB49000FFA80FA87E0BBF12B
:1008C000000F40D0A0463BE006EB080291B22A1987
:1008D00090B200F0B3FB06EB080291B22A1B90B273
:1008E00000F0ACFB321991B2A5EB080290B200F017
:1008F000A5FB321B91B2A5EB080290B200F09EFB63
:10090000A6EB080291B22A1B90B200F097FBA6EB6F
:10091000080291B22A1990B200F090FB321B91B2FA
:1009200005EB080290B200F089FB321991B205EB99
:10093000080290B200F082FB08F101000FFA80F883
:10094000B845C1DD2FE0F21991B22A1990B200F03A
:1009500075FBF21991B22A1B90B200F06FFB3219AD
:1009600091B2EA1B90B200F069FB321B91B2EA1B14
:1009700090B200F063FBF21B91B22A1B90B200F020
:100980005DFBF21B91B22A1990B200F057FB321BAB
:1009900091B2EA1990B200F051FB321991B2EA1902
:1009A00090B200F04BFB601C04B2BAF1000F05DA04
:1009B000A000801D50440FFA80FA07E0E01B800081
:1009C0000A3050440FFA80FA781E07B200BFBC42CA
:1009D0007FF775AFBDE8F09F2DE9FF4F83B08146EB
:1009E0004FF0000AD3460598A0EB09050499069834
:1009F000461ACDF8049004980090002D01DD0127DF
:100A000005E00DB9002702E04FF0FF376D42002EE0
:100A100002DD4FF0010806E016B94FF0000802E0D1
:100A20004FF0FF387642B54201DD2C4600E03446F7
:100A30000020029019E0DDE9001000F0FFFAAA445E
:100A4000B344A24505DDAAEB040A0198384480B2FC
:100A50000190A34505DDABEB040B0098404480B248
:100A600000900298401C80B20290611C029888425B
:100A7000E1DD07B0BDE8F08F00B597B001210802B5
:100A800000F052FB012001900420039080060790A3
:100A9000002002900490059006900890099008208C
:100AA0000A9010200B9000200C900E900F90109048
:100AB0004FF480501190002012901390149001A8D0
:100AC0001590169008A8FFF72BFD01210020FFF7D5
:100AD0000DFD17B000BD70B504460D4600262C2054
:100AE00000F0C8FA00BF03E0284600F0C7FA761C01
:100AF000A642F9D370BD000008B50121602000F0C6
:100B000023FB03208DF8020018208DF803004FF41A
:100B10008040ADF8000069465B48FFF774FD4FF474
:100B20000040ADF8000069465748FFF76CFD012012
:100B3000ADF8000069465448FFF765FD0220ADF8A6
:100B4000000069465048FFF75EFD8020ADF80000C8
:100B500069464E48FFF757FD4FF48070ADF800002E
:100B600069464A48FFF74FFD4FF40070ADF80000AA
:100B700069464648FFF747FD4FF48060ADF8000036
:100B800069464248FFF73FFD4FF40060ADF80000B2
:100B900069463E48FFF737FD4FF48050ADF800003E
:100BA00069463A48FFF72FFD4FF40050ADF80000BA
:100BB00069463648FFF727FD4FF48040ADF8000046
:100BC00069463248FFF71FFD4FF40040ADF80000C2
:100BD00069462E48FFF717FD4FF48070ADF800000E
:100BE00069462948FFF70FFD4FF40070ADF800008B
:100BF00069462548FFF707FD4FF48060ADF8000017
:100C000069462148FFF7FFFC03208DF802001820F9
:100C10008DF803001020ADF8000069461A48FFF770
:100C2000F2FC2020ADF8000069461748FFF7EBFC06
:100C30008020ADF8000069461348FFF7E4FC4FF44C
:100C40000060ADF8000069460F48FFF7DCFC10209B
:100C50008DF8030003208DF802000220ADF800009B
:100C600069460A48FFF7CFFC10208DF803000320E7
:100C70008DF802004FF48050ADF80000694602483C
:100C8000FFF7C1FC08BD000000140140001801403E
:100C900010B50446072C00DD10BD2848047020461E
:100CA00004EBD0714910A4EB410139B9F02024497B
:100CB00008804FF4A0702349088006E04FF4A0702C
:100CC0001F490880F0201F490880362000F0D2F923
:100CD000082141EA441000F0D1F92A2000F0CAF9B5
:100CE000002000F0CBF9002000F0C8F91449098871
:100CF000491EC1F3072000F0C1F911490978491EC6
:100D0000C8B200F0BBF92B2000F0B4F9002000F0CD
:100D1000B5F9002000F0B2F90A490988491EC1F36B
:100D2000072000F0ABF907490978491EC8B200F066
:100D3000A5F92C2000F09EF900BFADE704000020CB
:100D4000000000200200002010B5FFF7D5FEFFF7DD
:100D500093FE0120FFF7F2FC00F052F900F038F8A2
:100D600002480078FFF794FF10BD00000400002047
:100D70002DE9F04104460D4616461F462A2000F094
:100D800079F9201200F07AF9E0B200F077F9A119B0
:100D9000491EC1F30F2000F071F9A119491EC8B214
:100DA00000F06CF92B2000F065F9281200F066F9CC
:100DB000E8B200F063F9E919491EC1F30F2000F011
:100DC0005DF9E919491EC8B200F058F9BDE8F08193
:100DD00010B5CF2000F04EF9002000F04FF981202F
:100DE00000F04CF9302000F049F9ED2000F042F914
:100DF000642000F043F9032000F040F9122000F0D5
:100E00003DF9812000F03AF9E82000F033F985201F
:100E100000F034F9102000F031F9782000F02EF9BC
:100E2000CB2000F027F9392000F028F92C2000F021
:100E300025F9002000F022F9342000F01FF90220EB
:100E400000F01CF9F72000F015F9202000F016F949
:100E5000EA2000F00FF9002000F010F9002000F067
:100E60000DF9B12000F006F9002000F007F91B2071
:100E700000F004F9B62000F0FDF80A2000F0FEF8BA
:100E8000A22000F0FBF8C02000F0F4F8352000F0BC
:100E9000F5F8C12000F0EEF8112000F0EFF8C520C1
:100EA00000F0E8F8452000F0E9F8452000F0E6F809
:100EB000C72000F0DFF8A22000F0E0F8F22000F0F8
:100EC000D9F8002000F0DAF8262000F0D3F801204D
:100ED00000F0D4F8E02000F0CDF80F2000F0CEF8BC
:100EE000262000F0CBF8242000F0C8F80B2000F0FA
:100EF000C5F80E2000F0C2F8092000F0BFF8542019
:100F000000F0BCF8A82000F0B9F8462000F0B6F8D0
:100F10000C2000F0B3F8172000F0B0F8092000F022
:100F2000ADF80F2000F0AAF8072000F0A7F8002085
:100F300000F0A4F8E12000F09DF8002000F09EF8F9
:100F4000192000F09BF81B2000F098F8042000F016
:100F500095F8102000F092F8072000F08FF82A2072
:100F600000F08CF8472000F089F8392000F086F86E
:100F7000032000F083F8062000F080F8062000F03F
:100F80007DF8302000F07AF8382000F077F80F2054
:100F900000F074F8362000F06DF8C82000F06EF80C
:100FA0002A2000F067F8002000F068F8002000F028
:100FB00065F8002000F062F8EF2000F05FF82B20C9
:100FC00000F058F8002000F059F8002000F056F822
:100FD000012000F053F83F2000F050F83A2000F0D4
:100FE00049F8552000F04AF8112000F043F8034872
:100FF000FFF7CCFB292000F03DF810BDFCBF02003C
:1010000010B502210748FFF792FB40F6FF20FFF7DB
:10101000BDFB02210348FFF78CFB40F6FF20FFF7E2
:10102000B5FB10BD0018014070B504460D46012304
:101030001A4629462046FFF79BFE70BD70B505464F
:101040000C460948008885420CDA0848008884422A
:1010500008DA21462846FFF7E7FF05480188012006
:10106000FFF739FD70BD00000000002002000020E5
:101070000C0000204FF0C0410880704701490880F3
:10108000704700000000026008B50121142000F044
:101090005BF804208DF803000120ADF800006946DC
:1010A0000548FFF7B0FA4FF40050ADF8000069466C
:1010B0000248FFF7A8FA08BD0008014000100140EF
:1010C00070B504460D4629462046FFF727FB012848
:1010D00011D10F20FFF7A8F829462046FFF71EFB85
:1010E000012808D100BF29462046FFF717FB012839
:1010F000F9D0012070BD0020FCE700000149088004
:10110000704700000E000020014908607047000091
:101110000800002001490880704700000C000020F2
:1011200000BFFEE77047704729B1064A5269024383
:10113000044B5A6104E0034A52698243014B5A61ED
:10114000704700000010024029B1064A926902432C
:10115000044B9A6104E0034A92698243014B9A610D
:101160007047000000100240704710B500F002F810
:1011700010BD00000CB500200190009033480068BD
:1011800040F480303149086000BF3048006800F406
:10119000003000900198401C0190009818B9019807
:1011A000B0F5A06FF1D12948006800F4003010B10B
:1011B0000120009001E0002000900098012843D118
:1011C0002348006840F01000214908600846006884
:1011D00020F0030008600846006840F00200086044
:1011E0001A484068194948600846406848600846FF
:1011F000406840F4806048600846406820F47C10F5
:1012000048600846406840F4E810486008460068B6
:1012100040F08070086000BF0C48006800F000706B
:101220000028F9D00948406820F0030007494860C9
:101230000846406840F00200486000BF034840682C
:1012400000F00C000828F9D10CBD0000001002408D
:10125000002002407047000010B51348006840F0BD
:1012600001001149086008464068104908400E49CD
:101270004860084600680E4908400B490860084667
:10128000006820F4802008600846406820F4FE00D2
:1012900048604FF41F008860FFF767FF4FF0006061
:1012A0000449086010BD0000001002400000FFF873
:1012B000FFFFF6FE08ED00E000BFFEE70FB4084BAD
:1012C00010B504A902AA039800F01CF8044602A96C
:1012D000002000F0B8F9204610BC5DF814FB0000B7
:1012E0004716000802E008C8121F08C1002AFAD1F8
:1012F00070477047002001E001C1121F002AFBD196
:10130000704700002DE9FF4F8BB088460546002648
:1013100006E025280BD0DDE90D1290476D1C761CE8
:1013200028780028F5D10FB03046BDE8F08F0024B2
:10133000A146A2460122AE4900E0044315F8013F50
:10134000203B02FA03F00842F7D128782A2810D06F
:101350006FF02F022878A0F13001092915D809EB88
:10136000890102EB410144F0020400EB01096D1C0C
:10137000F0E758F8041B5FEA010903D544F4005470
:10138000C9F1000944F002046D1C28782E2817D1F9
:1013900015F8010F44F004042A280ED06FF02F0234
:1013A0002878A0F1300109290AD80AEB8A0102EB5A
:1013B000410100EB010A6D1CF2E758F804AB6D1C0B
:1013C00028786C280FD006DC4C2817D068280DD060
:1013D0006A2814D104E0742810D07A280FD10DE0C7
:1013E00044F400140AE044F4801401E044F440148E
:1013F0006978814202D104F580146D1C6D1C287837
:10140000692865D006DC00288DD0632827D06428A1
:1014100006D15DE06E2808D073282AD0752877D0D1
:10142000DDE90D129047761CE0E0C4F3025002287B
:1014300009D003280DD0D8F8001004280DD00E6074
:1014400008F10408D2E0D8F80010F217C1E90062F0
:10145000F6E7D8F800100E80F2E70E70F0E718F803
:10146000041B8DF8001000208DF80100EB460120D0
:1014700003E058F804BB4FF0FF3061074FF000075E
:1014800001D40AE07F1C57450DDA8742FADB1BF8CE
:1014900007100029F6D106E07F1C8742FCDB1BF811
:1014A00007100029F8D1DDE90D23A9EB07008146DB
:1014B000214600F0B1F83044C61904E0DDE90D1210
:1014C0001BF8010B90477F1EF8D22146484688E062
:1014D00058F8040BC4F302514FF00A0B032900D152
:1014E00000B2042900D140B2002802DA40422D2186
:1014F00002E0210505D52B218DF82410012104E0FF
:1015000006E0E10710D02021F6E708AF089113E0CC
:1015100058F8040BC4F302514FF00A0B032900D111
:1015200080B2042900D1C0B20021EEE75946FEF78F
:101530001BFE303107F8011D0028F7D1ADEB070085
:1015400000F1200B600702D524F4803401E04FF055
:10155000010ADA4502DDAAEB0B0000E0002082461A
:1015600000EB0B0108980144A9EB01000A90E0038D
:1015700006D4DDE90D2321460A9800F04DF8064413
:101580004FF0000908E009A911F80900DDE90D1282
:10159000904709F10109761C08998945F3DBE003BE
:1015A0000CD5DDE90D2321460A9800F035F80644F4
:1015B00004E0DDE90D1230209047761CBAF10001FD
:1015C000AAF1010AF5DC05E0DDE90D1217F8010BBF
:1015D0009047761CBBF10001ABF1010BF4DC0A98DB
:1015E0002146DDE90D2300F005F806446D1C97E661
:1015F000092801002DE9F041044600251E46174642
:10160000880404D405E039462020B0476D1C641ED0
:10161000F9D52846BDE8F0812DE9F04104460025C2
:101620001E469046C80301D5302700E020278804D5
:1016300004D505E041463846B0476D1C641EF9D517
:101640002846BDE8F0810A68531C0B601070704793
:1016500008B5244800680090FFF776FB0620FFF7E6
:1016600017FBFFF711FD0020FFF748FD4FF6FF7055
:10167000FFF750FD1C4803881C48028800210846DB
:10168000FFF76EF86846FEF7DDFD29E000241EE056
:1016900001211748FFF714FD012805D16846FEF720
:1016A0008DFD6846FEF7CEFD4FF400511148FFF75F
:1016B00007FD012805D16846FEF789FD6846FEF75B
:1016C000C1FD1420FEF7B0FD04F1140084B2B4F59E
:1016D0007A7FDDDB6846FEF78DFD6846FEF7B2FDDA
:1016E000D4E70000E81700080200002000000020F6
:1016F000000801400010014000006900D0003501E1
:101700009701F4014C029D02E70229036203920350
:10171000B703D203E303E803E303D203B70392035F
:1017200062032903E7029D024C02F401970135018F
:10173000D0006900000097FF30FFCBFE69FE0CFE71
:10174000B4FD63FD19FDD7FC9EFC6EFC49FC2EFC2C
:101750001DFC18FC1DFC2EFC49FC6EFC9EFCD7FCFD
:1017600019FD63FDB4FD0CFE69FECBFE30FF97FF53
:10177000E803E303D203B703920362032903E702FA
:101780009D024C02F40197013501D0006900000070
:1017900097FF30FFCBFE69FE0CFEB4FD63FD19FD23
:1017A000D7FC9EFC6EFC49FC2EFC1DFC18FC1DFCAD
:1017B0002EFC49FC6EFC9EFCD7FC19FD63FDB4FDBC
:1017C0000CFE69FECBFE30FF97FF00006900D000E1
:1017D00035019701F4014C029D02E70229036203DF
:1017E0009203B703D203E3030C00000000000000E3
:1017F00000000000000000000000000000001818B9
:1018000018181818080008180000000000003424F8
:10181000242400000000000000000000000000166A
:10182000247F2424247E2424000000000000083E9D
:101830006848681C1612127C10100000000061D26B
:1018400096740810162949C6000000000000003CEC
:10185000646438724ACE467F000000000000181809
:10186000181800000000000000000000000004083C
:101870001810303030301010180C04000000201008
:1018800008080C0404040C08181020000000080AC2
:10189000341C6A0800000000000000000000000086
:1018A000001818187F181818000000000000000029
:1018B00000000000000018180830000000000000C0
:1018C000000000003C0000000000000000000000DC
:1018D00000000000000018180000000000000206D0
:1018E000040C080810102020400000000000003CFC
:1018F0006642475B7342663C00000000000000182F
:10190000784808080808087E000000000000003C35
:10191000460606040810207E000000000000007C3F
:101920000606043C0202067C000000000000000CD9
:101930001C14246444FF0404000000000000007E26
:101940006060607E0202067C000000000000001E55
:10195000306048764242623C000000000000007E99
:101960000206040C08181030000000000000003CC3
:101970006242361C6642423C000000000000003C0F
:10198000664242661A02047800000000000000006F
:1019900000181800000018180000000000000000E7
:1019A000001818000000181808300000000000009F
:1019B0000004183060100C06000000000000000059
:1019C0000000007E007E000000000000000000001B
:1019D00000301804060C1020000000000000301C2D
:1019E00006060618100010100000000000001C225F
:1019F0004141DDB5A5A5AF94C0403C0000000018F2
:101A00001C342426627E43C1000000000000007CDC
:101A10004642467C4242427C000000000000001E1C
:101A2000204040404040603E000000000000007C3C
:101A30004642434343424678000000000000007ED7
:101A40006060607E6060607E000000000000007EDC
:101A50006060607E60606060000000000000001E4A
:101A6000604040CE4242623E000000000000004262
:101A70004242427E42424242000000000000007E9C
:101A8000181818181818187E000000000000007CB4
:101A90000404040404044478000000000000004230
:101AA00044485070584C44420000000000000020A0
:101AB000202020202020203E0000000000000062A6
:101AC00066675F5B5BC1C1C100000000000000628F
:101AD0006272525A4A4E4646000000000000003C26
:101AE0006243C3C3C343623C000000000000007CAB
:101AF0004642424678404040000000000000003C62
:101B00006243C3C3C343623C180F00000000007C63
:101B10006662667C6C646662000000000000003E45
:101B20006040601C0602027C000000000000007F94
:101B300018181818181818180000000000000042A3
:101B4000424242424242623C00000000000000C1AA
:101B50004342622624341C1800000000000000C12B
:101B6000C141495B5B7666660000000000000043EF
:101B7000663418181C2466C300000000000000C171
:101B80004266341C18181818000000000000007E7F
:101B900002040C181020607E0000000000001C10E1
:101BA000101010101010101010101C000000402019
:101BB00020101008080C04060200000000003C0C75
:101BC0000C0C0C0C0C0C0C0C0C0C3C000000001849
:101BD0001C24620000000000000000000000000063
:101BE00000000000000000000000FF0000002010C6
:101BF00000000000000000000000000000000000E5
:101C0000003C06023E42467A0000000000004040D0
:101C1000405C62424242427C000000000000000042
:101C2000001E20604060203E000000000000020214
:101C3000023E62424242663A00000000000000009C
:101C4000003C62427E40603E0000000000000F1831
:101C500010107E1010101010000000000000000096
:101C6000003F66426658403E43423C000000404010
:101C7000405C6242424242420000000000001818EC
:101C8000007808080808087E000000000000040C26
:101C9000007C040404040404040C78000000606068
:101CA00060626C7870686462000000000000780870
:101CB000080808080808087E00000000000000006E
:101CC00000764B4B4B4B4B4B0000000000000000DC
:101CD000005C6242424242420000000000000000FC
:101CE000003C62424342623C0000000000000000F1
:101CF000005C62424242427C4040400000000000E2
:101D0000003E62424242663A0202020000000000C7
:101D1000006E726360606060000000000000000000
:101D2000003E20203C06027C000000000000001065
:101D300010FE10101010101E000000000000000027
:101D4000004242424242663A0000000000000000A9
:101D50000043426624341818000000000000000010
:101D600000C1C15B5A5E6666000000000000000012
:101D70000062261C181C2662000000000000000003
:101D80000043426624341C181830E00000000000B4
:101D9000007E060C1810207E0000000000000E18C7
:101DA000101010307010101010180E0000080808E5
:101DB0000808080808080808080808000000301883
:101DC0000808080C0E080808081830000000000079
:101DD000000000714B060000000000000000000041
:101DE00000000000000000000000000000000000F3
:101DF00000000000000000000000000000000000E3
:101E000000000000000000000000000000000000D2
:101E1000000000000003800180018001800180013A
:101E20008001800180018001800000000003C00368
:101E3000C0000000000000000000000000000000E2
:101E400000000000000E700E700E700C30000000DC
:101E50000000000000000000000000000000000082
:101E60000000000000000000000000000000000072
:101E7000000000000000000618063806307FFE0C47
:101E8000300C300C300C307FFE0C601C6018601879
:101E900060000000000000000000000000000000E2
:101EA00000000000C000C00FF83CC831C031803DC8
:101EB000801F8003F001F8031C030C031C3FF83F54
:101EC000E007000600000000000000000000000025
:101ED0000000001C007E0E630C631863307E6000FF
:101EE000C001800300077C0EE61CC618C630C66021
:101EF0007C00000000000000000000000000000066
:101F000000000000000FE01CF0387038701C601FEB
:101F1000C00F003F8C71CC60EC607C70383CFC1FC3
:101F2000CE000000000000000000000000000000E3
:101F3000000000000003C00180018001800000005B
:101F40000000000000000000000000000000000091
:101F50000000000000000000000000000000000081
:101F6000000000003000E001C0018003000700060F
:101F70000006000E000E000E000E00060007000313
:101F800000038001C000E0003000000000000000FD
:101F90000000000C0006000380018001C000E0008A
:101FA0006000600070007000700060006000E00081
:101FB000C00180038006000C00000000000000004B
:101FC0000000000000018011881DB803C007E03D3B
:101FD000BC0188018000000000000000000000003B
:101FE00000000000000000000000000000000000F1
:101FF00000000000000000000000000180018001DE
:1020000080018001807FFE018001800180018000CD
:1020100000000000000000000000000000000000C0
:1020200000000000000000000000000000000000B0
:10203000000000000000000000000003C003C00119
:10204000C001C003801F000000000000000000006D
:102050000000000000000000000000000000000080
:1020600000000000000FF000000000000000000071
:102070000000000000000000000000000000000060
:102080000000000000000000000000000000000050
:10209000000000000000000000000003C003C003B7
:1020A000C000000000000000000000000000000070
:1020B0000000000000001800380030006000E00060
:1020C000C001C001800300030006000E000C001CCC
:1020D00000180030000000000000000000000000B8
:1020E000000000000001800FF01C38381C301C700C
:1020F0007E70EE738E7E0E7C0C300C381C1E780FBA
:10210000E0000000000000000000000000000000EF
:102110000000000000000007C01FC039C001C0015E
:10212000C001C001C001C001C001C001C03FFC3FEF
:10213000FC000000000000000000000000000000A3
:10214000000000000003801FF0183800380018005D
:10215000380038007001E0038007001C003FFC3F9E
:10216000FC00000000000000000000000000000073
:10217000000000000007801FF00038003800380021
:102180003007E007F00038001C001C001820F83F62
:10219000E00000000000000000000000000000005F
:1021A0000000000000000000F001B0033007300E16
:1021B000301C30383070307FFE7FFE003000300041
:1021C00030000000000000000000000000000000DF
:1021D000000000000000001FF81800180018001888
:1021E000001FE000F8001C001C001C003800F01F5D
:1021F000C00000000000000000000000000000001F
:102200000000000000000003F80F001C0018003060
:102210000037F83C3C300C300C380C381C1E380FA2
:10222000F0000000000000000000000000000000BE
:10223000000000000000003FFC001C0018003800F7
:1022400070006000E001C001800380070006000EFE
:10225000000000000000000000000000000000007E
:10226000000000000003C01FF8381C381C381C1C7C
:10227000380FF007F01C78381C300C381C3C380F35
:10228000F00000000000000000000000000000005E
:10229000000000000003801FF03838301C701C70F4
:1022A0000C380C1FFC0FCC001C001800701FE01F26
:1022B000800000000000000000000000000000009E
:1022C0000000000000000000000000000003C00348
:1022D000C00180000000000000000003C003C00334
:1022E000C00000000000000000000000000000002E
:1022F0000000000000000000000000000003C00318
:10230000C00180000000000000000003C003C00105
:10231000C001C003800F00000000000000000000AA
:102320000000000000000000000000003800F00184
:10233000C007001E0038000E00078001C0007000BA
:10234000300000000000000000000000000000005D
:10235000000000000000000000000000000000007D
:10236000003FFC000000003FFC3FFC0000000000BC
:10237000000000000000000000000000000000005D
:1023800000000000000000000000001C000F00031F
:102390008001E00078001C007001E003800E000C5A
:1023A000000000000000000000000000000000002D
:1023B00000000000000FC000F000380038003800B6
:1023C0003803F003800300030000000000078007CB
:1023D000800000000000000000000000000000007D
:1023E00000000000E007F80C0C18063006700363CC
:1023F000F36633C673CC63CC62CC66CCE6C7FCE034
:10240000006000700038101FF000000000000000A5
:102410000000000000000003C007E006E00E700EA0
:10242000700C301C3818183FFC3FFC700E600EE03A
:102430000700000000000000000000000000000095
:10244000000000000000003FF03838381C381C380D
:10245000383FF03FF8381C380C380C381C3FF83F38
:10246000E00000000000000000000000000000008C
:10247000000000000000E007FC1E043800380030B7
:1024800000700070007000300038003C001F9C0796
:10249000FC00000000000000000000000000000040
:1024A000000000000000003FF03078301C300C309D
:1024B0000E300E300E300E300E301C30383FF03FF4
:1024C000C00000000000000000000000000000004C
:1024D000000000000000001FF81800180018001885
:1024E000001FF81FF818001800180018001FF81F28
:1024F000F8000000000000000000000000000000E4
:10250000000000000000001FF81800180018001854
:10251000001FF81FF81800180018001800180018FD
:1025200000000000000000000000000000000000AB
:10253000000000000000F007FC1E043800300070AE
:1025400000700070FC700C700C300C380C1F1C07F5
:10255000FC0000000000000000000000000000007F
:1025600000000000000000300C300C300C300C304B
:102570000C3FFC3FFC300C300C300C300C300C307D
:102580000C0000000000000000000000000000003F
:10259000000000000000003FFC018001800180017C
:1025A000800180018001800180018001803FFC3F2B
:1025B000FC0000000000000000000000000000001F
:1025C000000000000000001FF0003000300030006C
:1025D000300030003000300030003000701DE01F4F
:1025E000C00000000000000000000000000000002B
:1025F00000000000000000381C387038E039C03B93
:10260000803F003F003B8039C038E03870383838B0
:102610001C0000000000000000000000000000009E
:10262000000000000000001C001C001C001C001C1E
:10263000001C001C001C001C001C001C001FFC1FB8
:10264000FC0000000000000000000000000000008E
:1026500000000000000000381C7C3C6C3E6E6E6682
:102660006E66CE63C663866186600660066006603D
:102670000600000000000000000000000000000054
:10268000000000000000003C0C3C0C3E0C360C33FB
:102690000C338C318C31CC30EC306C307C303C30B5
:1026A0001C0000000000000000000000000000000E
:1026B000000000000001C00FF81C3C381C700E70B8
:1026C0000E60066006700E700E700C381C1E780FBF
:1026D000E00000000000000000000000000000001A
:1026E000000000000000003FF0383C381C380C3877
:1026F0000C381C38783FE038003800380038003893
:1027000000000000000000000000000000000000C9
:10271000000000000001C00FF81C3C381C700E7057
:102720000E60066006700E700E700C381C1E780F5E
:10273000E0018001C000FF003C000000000000003C
:10274000000000000000003FF03838381838183812
:102750003838F03FC038E0387038383838381C38EE
:102760000E0000000000000000000000000000005B
:10277000000000000001E00FF83800380038003C8D
:10278000001F8003F00078001C001C001C38783FFC
:10279000E000000000000000000000000000000059
:1027A000000000000000007FFE0180018001800128
:1027B0008001800180018001800180018001800111
:1027C0008000000000000000000000000000000089
:1027D00000000000000000300C300C300C300C30D9
:1027E0000C300C300C300C300C300C381C1C380FFA
:1027F000F0000000000000000000000000000000E9
:1028000000000000000000E006700E700E381C385A
:102810001C1C181C380C300E70066007E003C00347
:10282000C0000000000000000000000000000000E8
:10283000000000000000006006600660066006619F
:1028400086638673C673CE766C366C3C3C3C3C38F3
:102850001C0000000000000000000000000000005C
:1028600000000000000000301C38181C380E7007F3
:10287000E003C003C007E00E701C381838381C7025
:102880000E0000000000000000000000000000003A
:1028900000000000000000700E700C381C1C380E88
:1028A00070066007E003C0018001800180018001A3
:1028B0008000000000000000000000000000000098
:1028C000000000000000003FFC001C003800700009
:1028D000E001C0038007000E000C0018003FFC3F21
:1028E000FC000000000000000000000000000000EC
:1028F00000000007F007F0060006000600060006CC
:102900000006000600060006000600060006000697
:102910000006000600060007F000000000000000AE
:10292000000000000018001C000C00060007000357
:10293000000380018001C000C00060007000300012
:10294000380018000C00000000000000000000002B
:102950000000000FE00FE000600060006000600019
:102960006000600060006000600060006000600067
:10297000600060006000600FE000000000000000E8
:102980000000000000000003C006C006600C301804
:1029900018301C00000000000000000000000000D3
:1029A0000000000000000000000000000000000027
:1029B0000000000000000000000000000000000017
:1029C0000000000000000000000000000000000007
:1029D00000000000000000FFFF00000000000000F9
:1029E00000000000001E0003800000000000000046
:1029F00000000000000000000000000000000000D7
:102A000000000000000000000000000000000000C6
:102A1000000000000000000000000000001FF01097
:102A200038001C001C0FFC1C1C381C381C3CFC1FF4
:102A3000DC000000000000000000000000000000BA
:102A4000000000000038003800380038003BF83E35
:102A50001C3C1C380C380C380C380C381C3C781FCB
:102A6000E000000000000000000000000000000086
:102A70000000000000000000000000000007F80E49
:102A8000001C0038003800380038001C000F180700
:102A9000F80000000000000000000000000000003E
:102AA0000000000000001C001C001C001C0FFC1C8F
:102AB0001C381C301C301C301C301C383C1CFC0FDB
:102AC0009C0000000000000000000000000000006A
:102AD000000000000000000000000000000FF01CDB
:102AE00038381C300C3FFC3000300038001E0C071A
:102AF000FC000000000000000000000000000000DA
:102B0000000000003C01FE03800300030003007F7F
:102B1000FC7FFC0300030003000300030003000329
:102B200000000000000000000000000000000000A5
:102B3000000000000000000000000000000FFE1C6C
:102B4000383818381818381FF03B8030003FF01F15
:102B5000FC300E700E381C1FF80000000000000052
:102B6000000000000038003800380038003BF83E14
:102B7000383C1C381C381C381C381C381C381C3895
:102B80001C00000000000000000000000000000029
:102B9000000000018003C003C0000000001FC0014E
:102BA000C001C001C001C001C001C001C001C03FDF
:102BB000FC00000000000000000000000000000019
:102BC000000000002000700070000000003FF000D6
:102BD0007000700070007000700070007000700075
:102BE000700070007020E03FC00000000000000096
:102BF00000000000001800180018001800183C1809
:102C00007018E01B801F001B8019E018701838181E
:102C10001C00000000000000000000000000000098
:102C200000000000001FC001C001C001C001C001C0
:102C3000C001C001C001C001C001C001C001C03F4E
:102C4000FC00000000000000000000000000000088
:102C5000000000000000000000000000006F3C7950
:102C6000EE71CE718E718E718E718E718E718E71CC
:102C70008E000000000000000000000000000000C6
:102C8000000000000000000000000000003BF83ED3
:102C9000383C1C381C381C381C381C381C381C3874
:102CA0001C00000000000000000000000000000008
:102CB000000000000000000000000000000FF01CF9
:102CC0003C381C700E700E700E700C381C1E780F85
:102CD000E000000000000000000000000000000014
:102CE000000000000000000000000000003BF83E73
:102CF0001C3C1C380C380C380C380C381C3C783F09
:102D0000E038003800380038000000000000000003
:102D1000000000000000000000000000000FFC1C8C
:102D20001C381C301C301C301C301C383C1CFC0F68
:102D30009C001C001C001C001C0000000000000087
:102D40000000000000000000000000000019F81F53
:102D50001C1C0C180E180018001800180018001879
:102D60000000000000000000000000000000000063
:102D7000000000000000000000000000000FF81C30
:102D80000018001E000FC001F80018001818381FA6
:102D9000F000000000000000000000000000000043
:102DA000000000000000000600060006007FFC0690
:102DB0000006000600060006000600070007840162
:102DC000FC00000000000000000000000000000007
:102DD00000000000000000000000000000381C3867
:102DE0001C381C381C381C381C381C383C1CFC0F88
:102DF000DC000000000000000000000000000000F7
:102E000000000000000000000000000000700C380E
:102E10001C38181C380C300E70066007E003C00325
:102E2000C0000000000000000000000000000000E2
:102E300000000000000000000000000000600660CC
:102E4000066186738E73CC33CC366C366C3C3C3C5E
:102E5000380000000000000000000000000000003A
:102E600000000000000000000000000000381C1CF2
:102E7000380E7007E003C003C007E00E701C38383E
:102E80001E00000000000000000000000000000024
:102E900000000000000000000000000000700C387E
:102EA0001C38181C380C300E70066007E003C00395
:102EB000C0038007000E007C00000000000000003E
:102EC000000000000000000000000000001FF800EB
:102ED00038007000E001C0038007000C001FFC3FB9
:102EE000FC000000000000000000000000000000E6
:102EF000000000007801F803800380038003800352
:102F00008003003F003E0003000380038003800332
:102F1000800380038001C000F80000000000000171
:102F20008001800180018001800180018001800199
:102F30008001800180018001800180018001800189
:102F400080018001800180018000000000000000FD
:102F50000000001E001F80018001C001C001C001EF
:102F6000C000C000FC007C00C001C001C001C00165
:102F7000C001C001C003801F00000000000000006D
:102F80000000000000000000000000000000000041
:102F9000001C003F0671CE60FC0000000000000035
:102FA0000000000000000000000000000000000021
:102FB0000000000000000000000000000000000011
:102FC0000000000000000000000000000000000001
:102FD00000000000000000000000000000000000F1
:102FE00000000000000000000000000000000000E1
:102FF00000000000000000000000000000000000D1
:1030000000000000000000000000000000000000C0
:1030100000000000000000000000000000003C0074
:10302000003C00003C00003C00003C00003C000074
:103030003C00003C00003C00003C00003C00003C28
:1030400000003C00003C00000000000000003C00CC
:10305000007E00003C0000000000000000000000B6
:103060000000000000000000000000000000000060
:103070000000000000000000000000000003C3E0AA
:1030800003C3E003C3C003C3C003C3C003C3C0037F
:10309000C1C00000000000000000000000000000AF
:1030A0000000000000000000000000000000000020
:1030B0000000000000000000000000000000000010
:1030C0000000000000000000000000000000000000
:1030D00000000000000000000000000000000000F0
:1030E00000000001E0E001C0E001C0E001C0E03FFD
:1030F000FFFE3FFFFE03C1C00381C00381C0038107
:10310000C07FFFFC7FFFFC078380070380070380ED
:103110000703800707800000000000000000000097
:10312000000000000000000000000000000000009F
:1031300000000000000000000000000700000F0079
:10314000000E0001FFF007FFF01F0E001E1E001E04
:103150001C001E1C000FDC0007FC0000FF80003F6D
:10316000F00038F800387800783C0070783071F85A
:103170003FFFE01FFF0000E00000E00000E0000073
:10318000000000000000000000000000000000003F
:10319000000000000000000000000000000F800F91
:1031A0003FE01E78703C7070707070E07071C03FCE
:1031B000E3801FC700000E00001C0000780000F034
:1031C000F001E7FC03CF0E078E0E0F0E0E1E0E0E43
:1031D0003C07BC7003F80000000000000000000085
:1031E00000000000000000000000000000000000DF
:1031F00000000000000000000000000000000000CF
:1032000001FF0007FF800F03C00F03C00F03C00FB3
:103210000780079F0003FE0003F0000FF83C3E7C90
:103220003C3C1F3C780FF87807F87C01F03E03F82F
:103230001FFFFC07FE1F0000000000000000000050
:10324000000000000000000000000000000000007E
:1032500000000000000000000000000000003E0030
:10326000003C00003C00003C00003C00003C000032
:103270003C00000000000000000000000000000012
:10328000000000000000000000000000000000003E
:10329000000000000000000000000000000000002E
:1032A000000000000000000000000000000000001E
:1032B000000000000000000000000000800001C0CD
:1032C000000780000F00001E00003C000078000096
:1032D000F00000E00001E00001E00001C00003C0D8
:1032E0000003C00001C00001E00001E00000F000A8
:1032F00000F000007800003C00001E00000F0000FD
:1033000007C00001C0000000000000000000000035
:103310000000000000000000000000000003C000EA
:1033200001E00000F000007C00003E00001E0000F4
:103330000F000007800007800003800003C0000327
:10334000C00003C00003C0000380000780000780A6
:10335000000F00001E00003C0000780000F000019B
:10336000E0000380000000000000000000000000FA
:1033700000000000000000000000000000001C0031
:10338000001C000018000F18F007DBE0007F0000B1
:10339000FF0007DBE00E1870001800001C00001C86
:1033A000000000000000000000000000000000001D
:1033B000000000000000000000000000000000000D
:1033C00000000000000000000000000000000000FD
:1033D00000000000000000000000000000000000ED
:1033E000000000000000000000000000003C0000A1
:1033F0003C00003C00003C00003C00003C003FFF63
:10340000FC3FFFFC003C00003C00003C00003C0096
:10341000003C000000000000000000000000000070
:10342000000000000000000000000000000000009C
:10343000000000000000000000000000000000008C
:10344000000000000000000000000000000000007C
:10345000000000000000000000000000000000006C
:1034600000000000000000000000007C00007E0062
:10347000007E00003E00001E00003C0000F8000737
:10348000E000040000000000000000000000000058
:10349000000000000000000000000000000000002C
:1034A000000000000000000000000000000000001C
:1034B000000000000000000000000000000003FF0A
:1034C000E003FFE00000000000000000000000003A
:1034D00000000000000000000000000000000000EC
:1034E00000000000000000000000000000000000DC
:1034F00000000000000000000000000000000000CC
:1035000000000000000000000000000000000000BB
:1035100000000000000000000000000000000000AB
:1035200000000000000000000000007C0000FE0021
:1035300000FE00007E00000000000000000000000F
:10354000000000000000000000000000000000007B
:1035500000000000000000000000000000000078F3
:103560000000F00000E00001E00003C00003800064
:103570000780000F00000E00001E00003C00003815
:103580000000700000F00000E00001C00003C00077
:103590000780000700000F00001E00001C00000054
:1035A000000000000000000000000000000000001B
:1035B000000000000000000000000000000000000B
:1035C00000000001FFC007FFE00F00F01E00781EA2
:1035D000003C3C00FC3C07FC3C1FBC3C7C1C3DF020
:1035E0003C3FC03C3F003C1E00381E00780F80F07E
:1035F00007FFE001FF800000000000000000000065
:1036000000000000000000000000000000000000BA
:1036100000000000000000000000000000000000AA
:10362000000000007E0003FE001FDE000E1E0000F2
:103630001E00001E00001E00001E00001E00001ED6
:1036400000001E00001E00001E00001E00001E00E4
:103650000FFFF80FFFF8000000000000000000005E
:10366000000000000000000000000000000000005A
:10367000000000000000000000000000000000004A
:1036800000000003FF800FFFE00E01F00000F000DB
:1036900000F00000F00000F00001E00003C0000FA7
:1036A00080003E00007C0001F00003C0000F80009D
:1036B0001FFFFC1FFFFC00000000000000000000D6
:1036C00000000000000000000000000000000000FA
:1036D00000000000000000000000000000000000EA
:1036E0000000000FFF800FFFE00001E00000F0008D
:1036F00000F00001E00003C001FF0001FFC0000373
:10370000F00000780000780000780000780001F0F8
:103710000FFFC00FFF0000000000000000000000CD
:103720000000000000000000000000000000000099
:103730000000000000000000000000000000000089
:10374000000000000FC0001FC0003FC0007BC00091
:10375000F3C001E3C003C3C00783C00F03C01C0351
:10376000C03803C07FFFFE7FFFFE0003C00003C020
:103770000003C00003C000000000000000000000C3
:103780000000000000000000000000000000000039
:103790000000000000000000000000000000000029
:1037A0000000000FFFE00FFFE00F00000F00000F10
:1037B00000000F00000F00000FFF800FFFE000006F
:1037C000F00000780000780000780000F00003E0CE
:1037D0000FFFC00FFE00000000000000000000000E
:1037E00000000000000000000000000000000000D9
:1037F00000000000000000000000000000000000C9
:10380000000000003FF001FFF003E0000780000F20
:1038100000001E00001E1F001FFFE01FC1F81E0059
:10382000781E003C1E003C1E003C0F00780F80F804
:1038300007FFE001FF800000000000000000000022
:103840000000000000000000000000000000000078
:103850000000000000000000000000000000000068
:103860000000001FFFFC1FFFFC0000780000F000BC
:1038700000E00001E00003C0000780000F00000F1F
:1038800000001E00003C0000780000F00001F00085
:1038900001E00003C0000000000000000000000084
:1038A0000000000000000000000000000000000018
:1038B0000000000000000000000000000000000008
:1038C00000000003FFE00FE3F00F00781E00781EF9
:1038D00000780F00F007E3E001FF8001FF8007E7B9
:1038E000E00F00F81E00781E003C1E007C1F00F850
:1038F0000FFFF003FFC00000000000000000000008
:1039000000000000000000000000000000000000B7
:1039100000000000000000000000000000000000A7
:1039200000000003FF800FC7E01E00F01E00783C7F
:1039300000783C00783C00381E00780FEFF807FF55
:10394000B80000780000780000F00001E0000FC02F
:103950000FFF000FF000000000000000000000005A
:103960000000000000000000000000000000000057
:103970000000000000000000000000000000000047
:103980000000000000000000000000000000000037
:103990007E00007E00007E00001800000000000095
:1039A00000000000000000000000003C00007E005D
:1039B000007E00003E00000000000000000000004B
:1039C00000000000000000000000000000000000F7
:1039D00000000000000000000000000000000000E7
:1039E00000000000000000000000000000000000D7
:1039F0007E00007E00007E00001800000000000035
:103A000000000000000000000000003E00007E00FA
:103A1000007F00001F00001E00001E0000FC0007C9
:103A2000F0000400000000000000000000000000A2
:103A30000000000000000000000000000000000086
:103A40000000000000000000000000400001E00055
:103A500007C0001F00007E0001F80003E0000F8097
:103A6000000F800003E00000F800003E00000F801F
:103A70000003E00000E00000000000000000000083
:103A80000000000000000000000000000000000036
:103A90000000000000000000000000000000000026
:103AA0000000000000000000000000000000000016
:103AB00000000000000000001FFFF80000000000F0
:103AC000000000001FFFF81FFFF8000000000000CA
:103AD00000000000000000000000000000000000E6
:103AE00000000000000000000000000000000000D6
:103AF00000000000000000000000000000000000C6
:103B0000000000000000000000000000078000032B
:103B1000E00000F800003E00000F800003E000001D
:103B2000F80001F00007C0001F00007C0001F00059
:103B300007C00003000000000000000000000000BB
:103B40000000000000000000000000000000000075
:103B50000000000000000000000000000001C000A4
:103B600001FE00007F800007C00001E00000F000BF
:103B700000F00001F00003E0007FC0007E00007054
:103B80000000700000700000000000000000F8005D
:103B900000F80000F8000000000000000000000035
:103BA0000000000000000000000000000000000015
:103BB00000000000000000000000000000001F8066
:103BC00000FFF003C07807801C0E000E1C000E3CA6
:103BD000000F383FC778FFC770E3C771C3C7F3C38F
:103BE00087E3C387E3878EE3878EE3CF8EE3FFFC13
:103BF00071F9F07000007000003800003C00000F08
:103C000001C007FFC000000000000000000000002D
:103C100000000000000000000000000000000000A4
:103C2000000000007E00007F0000FF0000E7800130
:103C3000E78003C3C003C3C00781E00781E00F0032
:103C4000F00F00F81FFFF81FFFFC3C003C3C001E7B
:103C500078001EF0000F00000000000000000000CF
:103C60000000000000000000000000000000000054
:103C70000000000000000000000000000000000044
:103C80000000001FFFC01FFFF01E00F01E00781E86
:103C900000781E00F01E01F01FFFC01FFFE01E0194
:103CA000F81E00781E003C1E003C1E00781E00F826
:103CB0001FFFE01FFF0000000000000000000000E8
:103CC00000000000000000000000000000000000F4
:103CD00000000000000000000000000000000000E4
:103CE00000000000FFF803FFF807C0000F00001EEF
:103CF00000001E00003C00003C00003C00003C00B6
:103D0000003C00003E00001E00000F00000FC00835
:103D100003FFF800FFF800000000000000000000B2
:103D20000000000000000000000000000000000093
:103D30000000000000000000000000000000000083
:103D40000000003FFF003FFFE03C01F03C00783CFA
:103D5000003C3C003C3C003C3C001E3C001E3C0047
:103D60001E3C003C3C003C3C00783C00F83C07E03A
:103D70003FFFC03FFC00000000000000000000000A
:103D80000000000000000000000000000000000033
:103D90000000000000000000000000000000000023
:103DA0000000000FFFF00FFFF00F00000F00000FEA
:103DB00000000F00000F00000FFFF00FFFF00F00DA
:103DC000000F00000F00000F00000F00000F0000A8
:103DD0000FFFF00FFFF000000000000000000000E7
:103DE00000000000000000000000000000000000D3
:103DF00000000000000000000000000000000000C3
:103E00000000000FFFF00FFFF00F00000F00000F89
:103E100000000F00000F00000FFFF00FFFF00F0079
:103E2000000F00000F00000F00000F00000F000047
:103E30000F00000F00000000000000000000000064
:103E40000000000000000000000000000000000072
:103E50000000000000000000000000000000000062
:103E600000000000FFFC03FFFC0FC0041F00001E49
:103E700000003C00003C0000780FFC780FFC78004C
:103E80003C3C003C3C003C3E003C1F003C0FC03C26
:103E900003FFFC00FFF8000000000000000000002D
:103EA0000000000000000000000000000000000012
:103EB0000000000000000000000000000000000002
:103EC0000000003C003C3C003C3C003C3C003C3CD6
:103ED000003C3C003C3C003C3FFFFC3FFFFC3C0006
:103EE0003C3C003C3C003C3C003C3C003C3C003C3E
:103EF0003C003C3C003C00000000000000000000D2
:103F000000000000000000000000000000000000B1
:103F100000000000000000000000000000000000A1
:103F20000000000FFFF80FFFF8003C00003C00000D
:103F30003C00003C00003C00003C00003C00003C19
:103F400000003C00003C00003C00003C00003C0045
:103F50000FFFF80FFFF80000000000000000000055
:103F60000000000000000000000000000000000051
:103F70000000000000000000000000000000000041
:103F80000000000FFFE00FFFE00001E00001E00093
:103F900001E00001E00001E00001E00001E00001BB
:103FA000E00001E00001E00001E00003C00C07C0F8
:103FB0000FFF8007FE00000000000000000000006E
:103FC00000000000000000000000000000000000F1
:103FD00000000000000000000000000000000000E1
:103FE0000000001E00781E01F01E03C01E07801E88
:103FF0001F001E3C001E78001EF0001FF0001EF87F
:10400000001E3C001E1E001E0F801E07C01E01E089
:104010001E00F81E007C00000000000000000000F0
:104020000000000000000000000000000000000090
:104030000000000000000000000000000000000080
:10404000000000078000078000078000078000074D
:10405000800007800007800007800007800007803D
:1040600000078000078000078000078000078000AD
:1040700007FFF807FFF80000000000000000000044
:104080000000000000000000000000000000000030
:104090000000000000000000000000000000000020
:1040A0000000003E007C3F00FC3F81DC3B81DC3BAC
:1040B000C39C39C39C38E71C38EF1C387E1C387C05
:1040C0001E383C1E78001E78001E78001E78001EE8
:1040D00078001E78001E00000000000000000000B4
:1040E00000000000000000000000000000000000D0
:1040F00000000000000000000000000000000000C0
:104100000000001F003C1F803C1FC03C1DC03C1D28
:10411000E03C1CF03C1C783C1C783C1C3C3C1C1ECD
:104120003C1C0F3C1C0F3C1C07BC1C03FC1C01FC72
:104130001C00FC1C00FC000000000000000000004F
:10414000000000000000000000000000000000006F
:10415000000000000000000000000000000000005F
:1041600000000001FFC007FFF00F00F81E007C3CBC
:10417000003C3C001E78001E78001E78001E78006F
:104180001E78001E3C003C3C003C1E00781F00F0E6
:1041900007FFE001FF8000000000000000000000B9
:1041A000000000000000000000000000000000000F
:1041B00000000000000000000000000000000000FF
:1041C0000000001FFF801FFFF01E00F81E007C1E75
:1041D000003C1E003C1E003C1E00781E03F01FFF2A
:1041E000C01FFE001E00001E00001E00001E00007A
:1041F0001E00001E00000000000000000000000083
:1042000000000000000000000000000000000000AE
:10421000000000000000000000000000000000009E
:1042200000000001FFC007FFF00F00F81E007C3CFB
:10423000003C3C001E78001E78001E78001E7800AE
:104240001E78001E3C003C3C003C1E00781F80F0A5
:1042500007FFE001FF80003C00003C00001F06005B
:104260000FFF0001F8000000000000000000000047
:10427000000000000000000000000000000000003E
:104280000000000FFF800FFFE00E01F00E00F00EA7
:1042900000F00E00F00E01F00FFFC00FFF000E1F28
:1042A000000E07800E03C00E01E00E00F00E00F8B5
:1042B0000E00780E003C000000000000000000002E
:1042C00000000000000000000000000000000000EE
:1042D00000000000000000000000000000000000DE
:1042E00000000003FFF00FFFF01F00001E00001E83
:1042F00000001F00000FC00007FC0000FF80000F3F
:10430000F00001F80000780000780000782000F844
:104310003FFFE03FFF8000000000000000000000C1
:10432000000000000000000000000000000000008D
:10433000000000000000000000000000000000007D
:104340000000003FFFFC3FFFFC003C00003C000081
:104350003C00003C00003C00003C00003C00003CF5
:1043600000003C00003C00003C00003C00003C0021
:10437000003C00003C0000000000000000000000C5
:10438000000000000000000000000000000000002D
:10439000000000000000000000000000000000001D
:1043A0000000003C003C3C003C3C003C3C003C3CF1
:1043B000003C3C003C3C003C3C003C3C003C3C00A5
:1043C0003C3C003C3C003C3C003C1E00781F00F89C
:1043D0000FFFE003FF80000000000000000000006D
:1043E00000000000000000000000000000000000CD
:1043F00000000000000000000000000000000000BD
:10440000000000F8000F78001E3C001E3C003C1E1F
:1044100000381E00780F00700F00F00781E0078160
:10442000E003C3C003E3C001E78000F78000FF00A2
:10443000007E00007E000000000000000000000080
:10444000000000000000000000000000000000006C
:10445000000000000000000000000000000000005C
:1044600000000078000E78000E78000E78001E38EC
:10447000001E38001E383C1C383C1C387E1C387F1F
:104480001C3CE71C3CE79C3DC39C1DC3DC1F81DC3E
:104490001F80F81F00F8000000000000000000006E
:1044A000000000000000000000000000000000000C
:1044B00000000000000000000000000000000000FC
:1044C0000000003C003C1E00780F00F00781E00374
:1044D000C3C001E78000FF00007E00007E0000FFF7
:1044E0000001FF8003E7C007C3E00F81F01F00F861
:1044F0003E007C7C003E0000000000000000000048
:1045000000000000000000000000000000000000AB
:10451000000000000000000000000000000000009B
:1045200000000078001F3C003E1E007C1F00780F3A
:1045300080F007C1E003E3C001E78000FF00007ED8
:1045400000003C00003C00003C00003C00003C003F
:10455000003C00003C0000000000000000000000E3
:10456000000000000000000000000000000000004B
:10457000000000000000000000000000000000003B
:104580000000001FFFFC1FFFFC0000F80001E0001E
:1045900003C0000780000F00001E00003C000078F0
:1045A0000000F00003E00007C0000F80001F0000C3
:1045B0003FFFFC3FFFFC0000000000000000000087
:1045C00000000000000000000000000000000000EB
:1045D0000000000000000000000000000001FFC01B
:1045E00001FFC001E00001E00001E00001E0000186
:1045F000E00001E00001E00001E00001E00001E076
:104600000001E00001E00001E00001E00001E00045
:1046100001E00001E00001E00001E00001E0000134
:10462000E00001FFC00000000000000000000000EA
:10463000000000000000000000000000000E00006C
:104640000F000007000003800003C00001E000002D
:10465000E00000F000007800003800003C00001E80
:1046600000000E00000F000007800003800001C062
:104670000001E00000E000007000007800003C0055
:10468000000000000000000000000000000000002A
:104690000000000000000000000000000003FF8098
:1046A00003FF80000780000780000780000780006C
:1046B0000780000780000780000780000780000750
:1046C00080000780000780000780000780000780C7
:1046D0000007800007800007800007800007800037
:1046E000078003FF800000000000000000000000C1
:1046F00000000000000000000000000000000000BA
:10470000000000003C00007E0000E70001C38003C1
:1047100081C00700E00E00F01E00780000000000DD
:104720000000000000000000000000000000000089
:104730000000000000000000000000000000000079
:104740000000000000000000000000000000000069
:104750000000000000000000000000000000000059
:104760000000000000000000000000000000000049
:104770000000000000000000000000000000000039
:104780000000000000000000000000000000000029
:10479000000000000000000000000000000000FF1A
:1047A000FFFFFFFFFF00000000000000000000000E
:1047B000000000000000000000000000000F80006A
:1047C00003E00000F800003C0000000000000000D2
:1047D00000000000000000000000000000000000D9
:1047E00000000000000000000000000000000000C9
:1047F00000000000000000000000000000000000B9
:1048000000000000000000000000000000000000A8
:104810000000000000000000000000000000000098
:104820000000000000000000000000000000000781
:10483000FFC007E7F00000F000007800007800FFFC
:10484000F807FFF80F00781E00781E00781E03F8A6
:104850000FFFF807FC7800000000000000000000D7
:104860000000000000000000000000000000000048
:10487000000000000000000000000000001E00001A
:104880001E00001E00001E00001E00001E00001E74
:104890007FE01EFFF01FC0781F00781E003C1E0046
:1048A0003C1E003C1E003C1E00381E00781E00F01E
:1048B0001FFFE007FF0000000000000000000000F4
:1048C00000000000000000000000000000000000E8
:1048D00000000000000000000000000000000000D8
:1048E00000000000000000000000000000000000C8
:1048F000FFF003FFF007C0000F80000F00001E0054
:10490000001E00001E00000F00000F800007C00006
:1049100003FFF000FFF000000000000000000000B6
:104920000000000000000000000000000000000087
:1049300000000000000000000000000000000078FF
:10494000000078000078000078000078000078010E
:10495000FFF807FFF80F00781E00781E00783C0073
:10496000783C00783C00781C00781E01F81F03F8A2
:104970000FFF7803FC78000000000000000000003A
:104980000000000000000000000000000000000027
:104990000000000000000000000000000000000017
:1049A0000000000000000000000000000000000106
:1049B000FFC007E3F00F00F81E00781E003C1FFF49
:1049C000FC1FFFFC1C00001E00001E00000F8000EA
:1049D00007FFF801FFF800000000000000000000E1
:1049E00000000000000000000000000000000000C7
:1049F000000000000000000000000000000003FCB8
:104A0000001FFE003E0000780000780000700000EB
:104A100070000070003FFFFC3FFFFC007000007062
:104A20000000700000700000700000700000700056
:104A30000070000070000000000000000000000096
:104A40000000000000000000000000000000000066
:104A50000000000000000000000000000000000056
:104A60000000000000000000000000000000000343
:104A7000FFFC07C3FC0F00F01E00F01E00F00F004B
:104A8000F00F83E00FFFC01E7C001C00001F000021
:104A90000FFFF00FFFFC1E003C3C003C3C003C1FA5
:104AA00081F80FFFE0003800000000000000000067
:104AB000000000000000000000000000001E0000D8
:104AC0001E00001E00001E00001E00001E00001E32
:104AD0007FE01EFFF01FC0F01F00781E00781E0050
:104AE000781E00781E00781E00781E00781E007860
:104AF0001E00781E0078000000000000000000008A
:104B000000000000000000000000000000000000A5
:104B100000000000000000000000000000003C0059
:104B2000007E00007E00003C000000000000000F3E
:104B3000FE000FFE00001E00001E00001E00001EF2
:104B400000001E00001E00001E00001E00001E00CF
:104B50000FFFF80FFFF80000000000000000000049
:104B60000000000000000000000000000000000045
:104B700000000000000000000000000000000380B2
:104B80000007E00007E00003800000000000000FC5
:104B9000FFC00FFFC00003C00003C00003C000033C
:104BA000C00003C00003C00003C00003C00003C076
:104BB0000003C00003C00003C00003C00007801E44
:104BC0003F001FFE0001C0000000000000000000C8
:104BD000000000000000000000000000000F0000C6
:104BE0000F00000F00000F00000F00000F00000F6B
:104BF00000F80F01E00F07C00F1F000F3C000FF877
:104C0000000FF8000F3E000F1F000F07C00F03E05A
:104C10000F00F80F007C0000000000000000000002
:104C20000000000000000000000000000000000084
:104C3000000000000000000000000000000FFE0067
:104C40000FFE00001E00001E00001E00001E0000DF
:104C50001E00001E00001E00001E00001E00001EA0
:104C600000001E00001E00001E00001E00001E00AE
:104C70000FFFF80FFFF80000000000000000000028
:104C80000000000000000000000000000000000024
:104C90000000000000000000000000000000000014
:104CA00000000000000000000000000000000039CB
:104CB000F9F83BBBBC3E3E1C3C3E1C383C1C383C1F
:104CC0001C383C1C383C1C383C1C383C1C383C1CF8
:104CD000383C1C383C1C00000000000000000000B4
:104CE00000000000000000000000000000000000C4
:104CF00000000000000000000000000000000000B4
:104D00000000000000000000000000000000001E85
:104D10007FE01EFFF01FC0F01F00781E00781E000D
:104D2000781E00781E00781E00781E00781E00781D
:104D30001E00781E00780000000000000000000047
:104D40000000000000000000000000000000000063
:104D50000000000000000000000000000000000053
:104D60000000000000000000000000000000000142
:104D7000FFC007E7F00F00F81E003C3C003C3C0081
:104D80003C3C003C3C003C3C003C1E00781F00F0DA
:104D900007FFE001FF8000000000000000000000AD
:104DA0000000000000000000000000000000000003
:104DB00000000000000000000000000000000000F3
:104DC0000000000000000000000000000000001EC5
:104DD0007FE01EFFF01FC0781F00781E003C1E0001
:104DE0003C1E003C1E003C1E00381E00781E00F0D9
:104DF0001FFFE01FFF001E00001E00001E00001E1F
:104E000000001E0000000000000000000000000084
:104E10000000000000000000000000000000000092
:104E20000000000000000000000000000000000181
:104E3000FFF807F7F80F00781E00781E00783C0096
:104E4000783C00783C00781C00781E01F81F03F8BD
:104E50000FFF7803FC7800007800007800007800ED
:104E60000078000078000000000000000000000052
:104E70000000000000000000000000000000000032
:104E80000000000000000000000000000000000F13
:104E90001FF00F7FF80FE03C0F803C0F003C0F002D
:104EA000000F00000F00000F00000F00000F0000B7
:104EB0000F00000F000000000000000000000000D4
:104EC00000000000000000000000000000000000E2
:104ED00000000000000000000000000000000000D2
:104EE00000000000000000000000000000000001C1
:104EF000FFE007E1E00F00000F000007800003FC67
:104F00000000FFC0000FF00000F00000780000F08B
:104F10000FFFE00FFF800000000000000000000015
:104F20000000000000000000000000000000000081
:104F30000000000000000000000000000000000071
:104F400000000001E00001E00001E00001E0007F5E
:104F5000FFF87FFFF801E00001E00001E00001E060
:104F60000001E00001E00001E00001E00000F000CD
:104F7000007FF8003FF80000000000000000000083
:104F80000000000000000000000000000000000021
:104F90000000000000000000000000000000000011
:104FA0000000000000000000000000000000001EE3
:104FB00000781E00781E00781E00781E00781E0003
:104FC000781E00781E00781E00780E00F80F03F897
:104FD00007FF7803FC7800000000000000000000DC
:104FE00000000000000000000000000000000000C1
:104FF00000000000000000000000000000000000B1
:105000000000000000000000000000000000003C64
:10501000003C1E007C1E00780F00F00F80F007811E
:10502000E003C3C003C3C001E78000E70000FF0046
:10503000007E00003C0000000000000000000000B6
:105040000000000000000000000000000000000060
:105050000000000000000000000000000000000050
:1050600000000000000000000000000000000078C8
:10507000000E78001E78001E383C1E383C1C3C7E1A
:105080001C3C7E3C1CE73C1CE7B81DC3B81FC3F8A2
:105090000F81F80F81F00000000000000000000008
:1050A0000000000000000000000000000000000000
:1050B00000000000000000000000000000000000F0
:1050C0000000000000000000000000000000001FC1
:1050D000007C0F80F007C1E003E3C000F780007F91
:1050E00000003E0000FF0001E78003C3C00781F01D
:1050F0001F00F83E007C00000000000000000000DF
:10510000000000000000000000000000000000009F
:10511000000000000000000000000000000000008F
:105120000000000000000000000000000000003C43
:10513000003C1E003C1E00780F00F00780F0078145
:10514000E003C1C003C3C001E78000F78000FF0097
:10515000007E00003E00003C0000780001F0007F6F
:10516000E0007F8000000000000000000000000060
:10517000000000000000000000000000000000002F
:105180000000000000000000000000000000000F10
:10519000FFF00FFFF00001E00007C0000F80001ECD
:1051A00000003C0000F80001E00003C000078000A0
:1051B0000FFFF80FFFF800000000000000000000E3
:1051C00000000000000000000000000000000000DF
:1051D000000000000000000000000000000007E0E8
:1051E000001FE0003C00003800003800007800009C
:1051F00078000078000078000078001FF0001F8021
:105200000001F000007800007800007800007800CD
:10521000007800007800007800003800003C0000B2
:105220001F80000FE00000000000000000000000F0
:1052300000000000003C00003C00003C00003C007E
:10524000003C00003C00003C00003C00003C000032
:105250003C00003C00003C00003C00003C00003CE6
:1052600000003C00003C00003C00003C00003C0012
:10527000003C00003C00003C00003C00003C000002
:105280003C00003C000000000000000000000000A6
:105290000000000000000000000000000007E00027
:1052A00007F800003C00001E00001E00001E000069
:1052B0001E00001E00001E00000E00000FF800017E
:1052C000F8000F80000E00001E00001E00001E00EF
:1052D000001E00001E00001E00001E00003C00001A
:1052E000FC0007F0000000000000000000000000CB
:1052F00000000000000000000000000000000000AE
:10530000000000000000000000000000000000009D
:10531000000000000000000007C0001FF01E3C7CE1
:105320001E381FFC7807F800000000000000000095
:10533000000000000000000000000000000000006D
:105340000000000000000000000000006C53000896
:105350000000002028000000E41200089453000818
:105360002800002000040000F4120008F0004001B2
:1053700006000000100000200000FFFFEB170008EF
:1053800008001000DB1D000810001800AB2F0008FB
:0453900018002000E1
:0400000508000131BD
:00000001FF
