:10012A0052554E3D002C2053504545443D000D0A82
:10013A00006572726F720D0A004443204D6F746F2E
:10014A007220436F6E74726F6C20457870657269A5
:10015A006D656E742053746172740D0A00436F6D7D
:10016A006D616E64733A20733D73746172742C20EE
:10017A00703D73746F702C202B3D75702C202D3DB3
:10018A00646F776E2C20302D343D7365742C203FBC
:10019A003D7374617475730D0A003F065B4F666D9B
:0901AA007D077F6F00050A0F14A8
:1002A600010D00010900011000C101020E0000C18C
:0B02B60000010A00020B000001083CE0
:1002DB0053890F438920438780758DFD758BFD7581
:0702EB009850D28ED2992237
:080003008F993099FDC299228A
:1002F2001202C2FF600C120003740129F9E43AFAF7
:0303020080EE2268
:07035100EF2430FF0200035E
:100305005389F0438901758CFC758A66D2A9D28C14
:0103150022C5
:03000B0002000EE2
:10000E00C0E0C083C082C0D075D000C007758CFC24
:10001E00758A66050DE50DC394144003750D003009
:10002E000011E50A9001AE93FFE50DC39F5004D277
:10003E00978002C297D3E50C9400E50B940040170D
:10004E00E50C150C7002150BD290E50C30E603D3BF
:10005E008001C392918004C290C2910509E509C343
:10006E00940A4006750900751001050FE50F700220
:10007E00050EC3E50F94E8E50E94034008750E00D7
:10008E00750F00D201D007D0D0D082D083D0E0320D
:10031600300009E50A9001A493F5A02275A04022B9
:10027C007BFF7A01792A1202F23000047F0180029E
:10028C007F001203517BFF7A01792F1202F2AF0A21
:0A029C001203517A0179380202F2D0
:0F032600750B07750CD07BFF7A01793B0202F251
:0E033500E50AC394045003050A22120326228F
:0E034300E50AD394004003150A221203262275
:1001FC00E5B0543CFEE50830E209EE20E205D20001
:10020C0012027CE50830E309EE20E305C20012027D
:10021C007CE50830E40AEE20E40612033512027C79
:10022C00E50830E50AEE20E50612034312027C8E47
:01023C0008B9
:01023D00229E
:1001B300309845C298AF99EF64736003BF5304D27C
:1001C300008032EF64706003BF5004C2008026BF1A
:1001D3002B05120335801EBF2D051203438016EF36
:1001E300C39430400DEFD394345007EF24D0F50A75
:0801F3008003BF3F0312027CF0
:0101FB0022E1
:10023E00E4F59075A04043B03C1202DB120305D2E8
:10024E00AF7BFF7A0179431202F27A0179671202CB
:10025E00F212027C1201B3E5106006E4F5101201F1
:0E026E00FC1203163001EDC20112027C80E684
:0300000002009E5D
:0C009E00787FE4F6D8FD7581200200E5B3
:1002C200BB010689828A83E0225002E722BBFE023A
:0902D200E32289828A83E493226D
:1000AA0002023EE493A3F8E493A34003F68001F22C
:1000BA0008DFF48029E493A3F85407240CC8C33357
:1000CA00C4540F4420C8834004F456800146F6DF26
:1000DA00E4800B01020408102040809002A6E47E0E
:1000EA00019360BCA3FF543F30E509541FFEE4931B
:1000FA00A360010ECF54C025E060A840B8E493A3E2
:10010A00FAE493A3F8E493A3C8C582C8CAC583CA0C
:10011A00F0A3C8C582C8CAC583CADFE9DEE780BEC4
:0102C100003C
:00000001FF
