:1001C80052554E3D002C2053504545443D000D0AE4
:1001D800006572726F720D0A003F065B4F666D7D97
:0801E800077F6F00050A0F14E8
:10028100010B00020C0000C101C1000108000209BC
:0202910000006B
:10023C00759850E589540F4420F589E4F587758D40
:09024C00F3758BF3D28ED29922D6
:080003008F993099FDC299228A
:100217008B0E8A0F8910AB0EAA0FA9101202556018
:10022700130510E5107002050F14F9120255FF129D
:05023700000380E2223B
:0702DE00EF2430FF020003D2
:10026E00E58954F04401F589758CFC758A18D2A97C
:03027E00D28C22FD
:03000B0002009A56
:10009A00C0E0C083C082C0D075D000C007758CFC98
:1000AA00758A18050BE50BC394144003750B0030D1
:1000BA000011E5089001EB93FFE50BC39F5004D2B2
:1000CA00978002C297D3E50A9400E5099400401785
:1000DA00E50A150A70021509D290E50A30E603D33B
:1000EA008001C392918004C290C291050DE50D7002
:1000FA0002050CC3E50D94E8E50C94034008750C61
:10010A0000750D00D201D007D0D0D082D083D0E0C4
:01011A0032B2
:10029400300009E5089001E193F5A02275A0402201
:10019C007BFF7A0179C81202173000047F018002BC
:1001AC007F001202DE7BFF7A0179CD120217AF08B5
:0C01BC001202DE7BFF7A0179D6020217E6
:0F02A400750907750AD07BFF7A0179D902021715
:0E02C200E508C3940450030508221202A4228A
:0E02D000E508D3940040031508221202A42270
:0E02B300E4FFFE0FBF00010EBE0BF8BFB8F552
:0102C100221A
:10011B0020B20E1202B320B208D20012019C30B2F0
:10012B00FD20B30E1202B320B308C20012019C30A3
:10013B00B3FD20B40F1202B320B4091202C2120194
:10014B009C30B4FD20B50F1202B320B5091202D0BA
:07015B0012019C30B5FD22EA
:10016200309836C298AF99BF7304D2008028BF700E
:1001720004C2008021BF2B051202C28019BF2D05C7
:100182001202D08011EFC39430400BEFD39434505D
:0901920005EF24D0F50812019CD0
:01019B002241
:1001F000E4F59075A04043B03C12023C12026ED26E
:10020000AF12019C12011B1201621202943001F420
:07021000C20112019C80ED08
:0300000002000EED
:0C000E00787FE4F6D8FD758120020055D3
:10025500BB010689828A83E0225002E722BBFE02A7
:09026500E32289828A83E49322DA
:10001A000201F0E493A3F8E493A34003F68001F20B
:10002A0008DFF48029E493A3F85407240CC8C333E7
:10003A00C4540F4420C8834004F456800146F6DFB6
:10004A00E4800B0102040810204080900281E47EC3
:10005A00019360BCA3FF543F30E509541FFEE493AB
:10006A00A360010ECF54C025E060A840B8E493A372
:10007A00FAE493A3F8E493A3C8C582C8CAC583CA9D
:10008A00F0A3C8C582C8CAC583CADFE9DEE780BE55
:01029300006A
:00000001FF
