:10000E004D6F746F723A0052554E0053544F50005C
:10001E00202053706565643A002020447574793A47
:10002E0000250D0A006572726F720D0A005374611D
:10003E007274206279206B65790D0A0053746F70AB
:10004E00206279206B65790D0A0053706565642016
:10005E00646F776E206279206B65790D0A0053709C
:10006E00656564207570206279206B65790D0A00D4
:10007E0053746172742062792050430D0A005374D8
:10008E006F702062792050430D0A005370656564CD
:10009E002075702062792050430D0A0053706565FB
:1000AE006420646F776E2062792050430D0A0053EE
:1000BE0065742073706565642062792050430D0A63
:1000CE0000556E6B6E6F776E20636F6D6D616E6433
:1000DE000D0A000D0A4443204D6F746F7220436F5A
:1000EE006E74726F6C204578706572696D656E7492
:1000FE002053746172740D0A004B65793A204F4D8E
:10010E00303D73746172742C204F4D313D73746F9A
:10011E00702C204F4D323D646F776E2C204F4D3337
:10012E003D75700D0A005043203A20723D73746184
:10013E0072742C20743D73746F702C202B3D75706F
:10014E002C202D3D646F776E2C20307E343D7365F0
:10015E00742073706565642C20733D7374617475BF
:10016E00730D0A00C0F9A4B0999282F880901423FE
:03017E00324150BB
:10052F00010B0002090000C100C102010800C10156
:08049A00D292D2937F017E0093
:1004A200E4FDFCC3ED9FEC9E500DE4FB0BBB78FC1E
:0704B2000DBD00010C80EC00
:0104B9002220
:1004F30075985053890F438920758DFD758BFDD2F7
:060503008EC299C298228D
:0A054E00C2998F993099FDC29922DD
:100509001204DAFF600C12054E740129F9E43AFA73
:0305190080EE224F
:07000300EF2430FF02054E5F
:10038D007BFF7A00790E1205093002067A00791585
:10039D0080067BFF7A0079191205097BFF7A0079B7
:1003AD001E120509AF081200037A007927120509FC
:1003BD00E50890017C9375F00A84FF120003E508AF
:1003CD009375F00A84AFF01200037A00792F0205BD
:0103DD000916
:05055800D2B4D2B5226F
:05055D00C2B4C2B5228A
:100474007BFF7A007933120509D2B4900000D2B51B
:1004840012049EC2B51204A2A3E582B490F0E583DF
:06049400B401EB02055D5E
:0E054000D2A4E50890017293F4F580C2A422C3
:10051C005389F0438901758CFF758AA4D2A9D2AF97
:03052C00D28C224C
:03000B0002032EBF
:10032E00C0E0C083C082C0D075D000C007758CFFFE
:10033E00758AA4050BE50BC394644003750B00305E
:10034E000215E50890017C93FFE50BC39F5004C294
:10035E00978006D2978002D297050AE50A700205A9
:10036E0009C3E50A9488E5099413400875090075D8
:0F037E000A00D200D007D0D0D082D083D0E03296
:1002A7007AFFD290D291D292D293C290D291120475
:1002B7009A20A002E4FA20A1027A0420A2027A0876
:1002C70020A3027A0CD290C29112049A20A0027A3B
:1002D7000120A1027A0520A2027A0920A3027A0D41
:1002E700D290D291C29212049C20A0027A0220A13D
:1002F700027A0620A2027A0A20A3027A0ED290D2AC
:1003070091D292C29312049E20A0027A0320A102E6
:100317007A0720A2027A0B20A3027A0FD290D291F9
:06032700D292D293AF0256
:01032D0022AD
:1003DE00EF14601414601D14602A2403703CD202C2
:1003EE007BFF7A00793B802CC202C2977BFF7A009A
:1003FE00794A8020E5087002800F15087BFF7A008D
:10040E0079588010E508B4040302047405087BFFD4
:0B041E007A00796C12050912038D2290
:1004BA001202A7EFF460162001157F147E001204C1
:0F04CA00A21202A7EFF46007D2010203DEC20103
:0104D9002200
:1001810020980302021AC29885990CE50C647260EA
:1001910005E50CB4520AD2027BFF7A00797E805DBC
:1001A100E50C64746005E50CB4540CC202C2977B83
:1001B100FF7A00798C8046E50CB42B11E508B40474
:1001C10002801305087BFF7A0079998030E50CB431
:1001D1002D11E508700302047415087BFF7A00797C
:1001E100AA801AE50CC394304018E50CD39434501E
:1001F10011E50C24D0F5087BFF7A0079BD120509C1
:10020100800BE50C64736005E50CB4530302038DA8
:090211007BFF7A0079CF12050988
:01021A0022C1
:100429007580FF7590FF75A0FF75B0FFD297D2A4B4
:1004390012055DE4F508C2021204F312051C7BFFE4
:100449007A0079E11205097A0179071205097A0119
:10045900793412050912038D1205401204BA1201EA
:0B046900813000F4C20012038D80ED12
:0300000002021BDE
:0C021B00787FE4F6D8FD758120020262B5
:1004DA00BB010689828A83E0225002E722BBFE0220
:0904EA00E32289828A83E4932253
:10022700020429E493A3F8E493A34003F68001F2C0
:1002370008DFF48029E493A3F85407240CC8C333D8
:10024700C4540F4420C8834004F456800146F6DFA7
:10025700E4800B010204081020408090052FE47E03
:10026700019360BCA3FF543F30E509541FFEE4939C
:10027700A360010ECF54C025E060A840B8E493A363
:10028700FAE493A3F8E493A3C8C582C8CAC583CA8E
:10029700F0A3C8C582C8CAC583CADFE9DEE780BE46
:01053F0000BB
:00000001FF
