:10008A00586927616E2054616E67647520436F72E8
:05009A00702E0D0A00AC
:10007100759850E589540F4420F589E4F587758D0D
:09008100F3758BF3D28ED29922A3
:0800BC008F993099FDC29922D1
:100032008B088A09890AAB08AA09A90A1200036077
:1000420013050AE50A7002050914F9120003FF12EA
:0500520000BC80E22269
:10005700900000AF82AE83E4FCFD7BB87A88F9F8A4
:09006700D312001C4003A380EA3F
:01007000226D
:10009F001200717BFF7A00798A12003212005780AA
:0100AF00F25E
:030000000200B04B
:0C00B000787FE4F6D8FD75810A02009FFD
:10000300BB010689828A83E0225002E722BBFE02FB
:09001300E32289828A83E493222E
:10001C00EB9FF5F0EA9E42F0E99D42F0EC6480C85B
:06002C0064809845F022FB
:00000001FF
