:1003AD00707265636973696F6E3D000D0A0041449B
:1003BD00433D002C20553D003F065B4F666D7D078C
:0203CD007F6F40
:0B04460001130001140203100000006D
:0304340093F5A09D
:0E043700E4FFFE0FBF00010EBE01F8BFF4F59A
:010445002294
:10040800759850E589540F4420F589758780758D56
:09041800FD758BFDD28ED29922F4
:0B0421007C007D0A12001CED2430FF5F
:08042C008F993099FDC299225D
:100366008B0A8A0B890CAB0AAA0BA90C1200036034
:1003760013050CE50C7002050B14F9120003FF12AD
:05038600042C80E222BE
:04027F00AD07AC0615
:10028300E4FFFEC3ED9464EC9400400B749C2DFDDD
:1002930074FF3CFC0F80ECC3ED940AEC9400400B1C
:1002A30074F62DFD74FF3CFC0E80ECEF60092430E6
:1002B300FF12042CEE8003EE60062430FF12042CA0
:0702C300ED2430FF02042CC2
:1001F8007E007C137D8812013FE47BFFFAF9F81238
:1002080000AD8F0D8E0C8D0B8C0AE47BE87A03F918
:10021800F81200AD8E0E8F0FE47BE87A03F9F8AF81
:100228000DAE0CAD0BAC0A1200ADAF0FAE0E120244
:100238007FE514D39400403A7F2E12042C7C007D75
:1002480064AF03AE0212001CEF2430FF12042CE549
:1002580014D39401400E7C007D0AAF03AE02120055
:100268001C120421E514D394024007AE02AF031216
:0702780004217F5602042C53
:1003CF007580FFC2B6D2B4D2B5120437C2B4C2B56B
:0C03DF0030B3FDD2B6120437AF80C2B6B6
:0103EB0022EF
:1003EC00EF75F06484F510EF75F00A8475F00A84EB
:0C03FC0085F011EF75F00A8485F01222E4
:10038B007590FEE5109003C51204347590FDE511D0
:10039B001204347590FBE51293F5A0120437759097
:0203AB00FF222F
:10030D0030982EC298AF99EFC394304024EFD39418
:10031D0033501EEF24D0F5147BFF7A0379AD120311
:10032D0066AF147E0012027F7BFF7A0379B8120349
:01033D006659
:01033E00229C
:10033F007BFF7A0379BB120366AF137E0012027F35
:10034F007BFF7A0379C0120366AF131201F87BFFAC
:07035F007A0379B80203667E
:1002CA00E4F508F5091204087580FF7590FFE4F556
:1002DA00A043B008C2B4C2B5C2B612030D1203CF0E
:1002EA008F131203EC12038B0509E5097002050846
:1002FA00C39450E508940040E1E4F508F5091203B7
:03030A003F80D75A
:0300000002016C8E
:0C016C00787FE4F6D8FD7581140201B321
:10000300BB010689828A83E0225002E722BBFE02FB
:09001300E32289828A83E493222E
:10001C00BC000BBE0029EF8DF084FFADF022E4CCC8
:10002C00F875F008EF2FFFEE33FEEC33FCEE9DEC91
:10003C00984005FCEE9DFE0FD5F0E9E4CEFD22EDD7
:10004C00F8F5F0EE8420D21CFEADF075F008EF2F21
:10005C00FFED33FD4007985006D5F0F222C398FD12
:05006C000FD5F0EA22AF
:1000710075F008758200EF2FFFEE33FECD33CDCC46
:1000810033CCC58233C5829BED9AEC99E5829840C9
:100091000CF582EE9BFEED9AFDEC99FC0FD5F0D6A6
:1000A100E4CEFBE4CDFAE4CCF9A88222B800C1B9D0
:1000B1000059BA002DEC8BF084CFCECDFCE5F0CB0E
:1000C100F97818EF2FFFEE33FEED33FDEC33FCEB47
:1000D10033FB10D703994004EB99FB0FD8E5E4F902
:1000E100FA227818EF2FFFEE33FEED33FDEC33FCEF
:1000F100C933C910D7059BE99A4007EC9BFCE99AE3
:10010100F90FD8E0E4C9FAE4CCFB2275F010EF2F27
:10011100FFEE33FEED33FDCC33CCC833C810D70727
:100121009BEC9AE899400AED9BFDEC9AFCE899F862
:0E0131000FD5F0DAE4CDFBE4CCFAE4C8F922F5
:10013F00EC8EF0A4CCC5F0CCCDF8EFA4CEC5F02D4D
:10014F00FDE43CFCE8A42EC8C5F03DFDE43CFCEF0B
:0D015F00A4FFE5F028FEE43DFDE43CFC2299
:100178000202CAE493A3F8E493A34003F68001F2D1
:1001880008DFF48029E493A3F85407240CC8C33388
:10019800C4540F4420C8834004F456800146F6DF57
:1001A800E4800B0102040810204080900446E47E9D
:1001B800019360BCA3FF543F30E509541FFEE4934C
:1001C800A360010ECF54C025E060A840B8E493A313
:1001D800FAE493A3F8E493A3C8C582C8CAC583CA3E
:1001E800F0A3C8C582C8CAC583CADFE9DEE780BEF6
:0104510000AA
:00000001FF
