:1003AA00707265636973696F6E3D000D0A0041449E
:1003BA00433D002C20553D003F065B4F666D7D078F
:0203CA007F6F43
:0B044100011300011402031000000072
:03042F0093F5A0A2
:0E043200E4FFFE0FBF00010EBE01F8BFF4F59F
:010440002299
:10040300759850E589540F4420F589E4F587758D77
:09041300F3758BF3D28ED299220D
:0B041C007C007D0A12001CED2430FF64
:080427008F993099FDC2992262
:100363008B0A8A0B890CAB0AAA0BA90C1200036037
:1003730013050CE50C7002050B14F9120003FF12B0
:05038300042780E222C6
:04027F00AD07AC0615
:10028300E4FFFEC3ED9464EC9400400B749C2DFDDD
:1002930074FF3CFC0F80ECC3ED940AEC9400400B1C
:1002A30074F62DFD74FF3CFC0E80ECEF60092430E6
:1002B300FF120427EE8003EE60062430FF120427AA
:0702C300ED2430FF020427C7
:1001F8007E007C137D8812013FE47BFFFAF9F81238
:1002080000AD8F0D8E0C8D0B8C0AE47BE87A03F918
:10021800F81200AD8E0E8F0FE47BE87A03F9F8AF81
:100228000DAE0CAD0BAC0A1200ADAF0FAE0E120244
:100238007FE514D39400403A7F2E1204277C007D7A
:1002480064AF03AE0212001CEF2430FF120427E54E
:1002580014D39401400E7C007D0AAF03AE02120055
:100268001C12041CE514D394024007AE02AF03121B
:07027800041C7F560204275D
:1003E8007580FFC2B4D2B6C2B5120432D2B520B3FA
:0A03F800FDC2B6120432AF80D2B687
:0104020022D7
:1003CC00EF75F06484F510EF75F00A8475F00A840B
:0C03DC0085F011EF75F00A8485F0122204
:100388007590FEE5109003C212042F7590FDE511DB
:1003980012042F7590FBE51293F5A01204327590A4
:0203A800FF2232
:10030A0030982EC298AF99EFC394304024EFD3941B
:10031A0033501EEF24D0F5147BFF7A0379AA120317
:10032A0063AF147E0012027F7BFF7A0379B5120352
:01033A00635F
:01033B00229F
:10033C007BFF7A0379B8120363AF137E0012027F3E
:10034C007BFF7A0379BD120363AF131201F87BFFB5
:07035C007A0379B502036387
:1002CA00E4F508F5091204037580FF7590FFE4F55B
:1002DA00A0C2B4D2B5D2B612030A1203E88F13121F
:1002EA0003CC1203880509E50970020508C3945076
:1002FA00E508940040E1E4F508F50912033C80D7CB
:0300000002016C8E
:0C016C00787FE4F6D8FD7581140201B321
:10000300BB010689828A83E0225002E722BBFE02FB
:09001300E32289828A83E493222E
:10001C00BC000BBE0029EF8DF084FFADF022E4CCC8
:10002C00F875F008EF2FFFEE33FEEC33FCEE9DEC91
:10003C00984005FCEE9DFE0FD5F0E9E4CEFD22EDD7
:10004C00F8F5F0EE8420D21CFEADF075F008EF2F21
:10005C00FFED33FD4007985006D5F0F222C398FD12
:05006C000FD5F0EA22AF
:1000710075F008758200EF2FFFEE33FECD33CDCC46
:1000810033CCC58233C5829BED9AEC99E5829840C9
:100091000CF582EE9BFEED9AFDEC99FC0FD5F0D6A6
:1000A100E4CEFBE4CDFAE4CCF9A88222B800C1B9D0
:1000B1000059BA002DEC8BF084CFCECDFCE5F0CB0E
:1000C100F97818EF2FFFEE33FEED33FDEC33FCEB47
:1000D10033FB10D703994004EB99FB0FD8E5E4F902
:1000E100FA227818EF2FFFEE33FEED33FDEC33FCEF
:1000F100C933C910D7059BE99A4007EC9BFCE99AE3
:10010100F90FD8E0E4C9FAE4CCFB2275F010EF2F27
:10011100FFEE33FEED33FDCC33CCC833C810D70727
:100121009BEC9AE899400AED9BFDEC9AFCE899F862
:0E0131000FD5F0DAE4CDFBE4CCFAE4C8F922F5
:10013F00EC8EF0A4CCC5F0CCCDF8EFA4CEC5F02D4D
:10014F00FDE43CFCE8A42EC8C5F03DFDE43CFCEF0B
:0D015F00A4FFE5F028FEE43DFDE43CFC2299
:100178000202CAE493A3F8E493A34003F68001F2D1
:1001880008DFF48029E493A3F85407240CC8C33388
:10019800C4540F4420C8834004F456800146F6DF57
:1001A800E4800B0102040810204080900441E47EA2
:1001B800019360BCA3FF543F30E509541FFEE4934C
:1001C800A360010ECF54C025E060A840B8E493A313
:1001D800FAE493A3F8E493A3C8C582C8CAC583CA3E
:1001E800F0A3C8C582C8CAC583CADFE9DEE780BEF6
:01044C0000AF
:00000001FF
